:020000040800F2
:100000006808002001010008271F0008511A000895
:10001000251F000815050008312800080000000011
:100020000000000000000000000000006B2300083A
:100030005B05000800000000692300086D2300082C
:100040001B0100081B0100081B0100081B01000820
:100050001B0100081B0100081B0100081B01000810
:100060001B0100081B0100081B0100081B01000800
:100070001B0100081B0100081905000825050008E0
:100080001B0100081B0100081B0100081B010008E0
:100090001B0100081B0100081B0100081B010008D0
:1000A0001B0100081B0100081B0100081B010008C0
:1000B0001B010008D1230008DD2300081B010008F4
:1000C0001B0100081B0100081B0100081B010008A0
:1000D0001B010008012800081B0100081B01000883
:1000E0001B0100081B0100081B010008DFF80CD0F1
:1000F00000F0FEF900480047693A0008680800204F
:100100000648804706480047FEE7FEE7FEE7FEE7B1
:10011000FEE7FEE7FEE7FEE7FEE7FEE7CF23000887
:10012000ED0000082DE9F0410024061B254671F181
:10013000000605DA01240027D0EB070067EB010178
:10014000161E73F1000605DA0027D2EB070201251F
:1001500067EB030300F055F986460E4617469C46AA
:10016000AC4204D00025D0EB050E65EB010624B1AE
:100170000020D2EB000760EB030C704631463A4694
:100180006346BDE8F081202A04DB203A21FA02F020
:100190000021704721FA02F3D040C2F120029140C1
:1001A000084319467047D2B201E000F8012B491EFE
:1001B000FBD270470022F6E710B513460A46044604
:1001C0001946FFF7F0FF204610BD30B50446002069
:1001D000034600E05B1C934203D2E05CCD5C401B15
:1001E000F8D030BDF0B480EA0102D40F4200B2EB87
:1001F000410F02D20246084611464A0042D0C30DC2
:10020000DDB2C1F3C752AD1A202D35DAC1F31601A4
:1002100041F4000204B15242C5F1200602FA06F18F
:100220002A411044B3EBD05F23D0C4B1012DA0EB21
:10023000C35009DCF0BC4FF0004202EAC352DBB20B
:1002400000F5000000F026B9400000F1807000EBDE
:10025000C350A0F1807040EAD170490009E049081C
:1002600041EAC071A0EBC35000F50000400800EB6C
:10027000C350F0BC00F005B96142012202EB41011C
:10028000001BF6E7F0BC704781F00041AAE780F060
:100290000040A7E780EA010210B502F000434000E9
:1002A00022D04A001FD0010E01EB1261C0F35600AC
:1002B000C2F3560240F4000042F40002A0FB022008
:1002C00000047F39140400D0401C50EA124001D4CD
:1002D0004000491EC2B20C0604EBD010401C40087E
:1002E000802A02D003E0002010BD20F00100002988
:1002F00000DA0020184310BD30B480EA010202F099
:10030000004530F0004221F0004013D090B1C30D01
:10031000D40DC2F31601C0F31600E41A41F4000133
:1003200040F400027D34914201D3641C00E0490096
:10033000002C02DA30BC002070474FF4000000238C
:10034000914201D3891A034340084FEA4101F7D192
:1003500051B1914202D14FF0004105E002D24FF07D
:10036000010101E06FF0010103EBC450284430BCEF
:1003700000F087B8420005D0C0F3C7525242914204
:1003800001DC0020704700EBC1507047C10F80EACC
:10039000E0700844CA079623002100F07BB896233A
:1003A0000022114600F076B800F0004220F0004034
:1003B000C10DC0F3160040F400007F2901DA0020CF
:1003C0007047962903DCC1F19601C84001E09639D7
:1003D0008840002AF4D04042704720F00040C10D10
:1003E000C0F3160040F400007F2901DA00207047B6
:1003F000962903DCC1F19601C840704796398840C0
:1004000070472DE9F05F0546002092469B468846DE
:100410000646814640241BE0284641464746224680
:10042000FFF7B1FE53465A46C01A914110D3114608
:100430001846224600F016F82D1A67EB01084F46C1
:1004400022460120002100F00DF817EB00094E4173
:10045000201EA4F10104DFDC484631462A4643460B
:10046000BDE8F09F202A04DB203A00FA02F10020C8
:1004700070479140C2F1200320FA03F319439040E2
:1004800070470029A8BF7047401C490008BF20F0F2
:100490000100704710B4B0FA80FC00FA0CF050EA8A
:1004A000010404BF10BC704749B1CCF1200421FA0B
:1004B00004F411FA0CF118BF012121430843A3EB06
:1004C0000C01CB1D4FEA00614FEA102042BF002013
:1004D00010BC704700EBC35010440029A4BF10BCEF
:1004E0007047401C490008BF20F0010010BC704755
:1004F000064C074D06E0E06840F0010394E8070071
:1005000098471034AC42F6D3FFF7F4FD645E000860
:10051000845E0008FEE70000014800F091B800008A
:1005200014020020014800F08BB80000D001002028
:1005300030B590F840500124AC40C56B6C60046845
:1005400063604368102B036803D099600068C26041
:1005500030BD9A600068C16030BD704772B6FEE77A
:1005600010B590F821100022022905D004218163E2
:1005700080F82020012010BD01680B6823F00E03D5
:100580000B6001680B6823F001030B6090F84030AA
:10059000C46B012101FA03F3636080F8211080F835
:1005A0002020104610BD000010B590F82110002446
:1005B000022903D00421816301243DE001680A6817
:1005C00022F00E020A6001680A6822F001020A6045
:1005D0001A4A0168914201D1012121E0174A1432DF
:1005E000914201D110211BE0144A2832914201D1DD
:1005F000891515E0114A3C32914201D189140FE06E
:100600000E4A5032914202D14FF4803108E00B4A39
:100610006432914202D14FF4801101E04FF08071B9
:10062000064A083A5160012180F82110002180F823
:100630002010416B01B18847204610BD08000240E0
:100640002DE9F05FC16B0C6801680B68D0F840C001
:10065000042202FA0CF2494DDFF824A1494E4A4F18
:10066000DFF828B1DFF828E122422CD05A072AD53A
:100670000A68920603D40A6822F004020A6001683C
:10068000A94201D1042219E0514501D1402215E0CF
:10069000B14202D14FF4806210E0B94202D14FF46E
:1006A00080420BE0594502D14FF4802206E07145AB
:1006B00002D14FF4800201E04FF080622F490839E7
:1006C0004A60C16A3BE04FF0020808FA0CF818EAE9
:1006D000040F4FF000094FF0010235D05FEA837834
:1006E00032D50B689B0605D40B6823F00A030B6018
:1006F00080F821200168A94201D1022219E0514568
:1007000001D1202215E0B14202D14FF4007210E075
:10071000B94202D14FF400520BE0594502D14FF4D7
:10072000003206E0714502D14FF4001201E04FF0B3
:100730000072124908394A6080F82090816A0029C5
:100740001AD0BDE8F05F0847082505FA0CF52542E8
:1007500012D01B0710D50B6823F00E030B6090F826
:100760004010C36B02FA01F15960826380F82120C6
:1007700080F82090016BE2E7BDE8F09F080002409E
:100780001C00024030000240440002405800024079
:100790006C00024030B528B308C81349142219442C
:1007A000B1FBF2F18900C1631049816302214177F5
:1007B0001A6843F6F0718A43D0E900142143D0E966
:1007C00002452C4321430469214344692143846940
:1007D00021431143196000214163012242770177CF
:1007E000084630BD012030BDF8FFFDBF00000240CB
:1007F00070B5044690F82000002501280CD0012097
:1008000084F8200094F821600020012E06D084F89E
:1008100020000225284670BD022070BD022684F803
:100820002160A0632068066826F001060660204665
:10083000FFF77EFEE06A00282068016802D041F0E0
:100840000E0106E021F0040101602068016841F01A
:100850000A0101602068016841F001010160D9E7E7
:1008600070B5044600F004F90546601C02D0044847
:100870000078044400F0FCF8401BA042FAD370BD9D
:10088000640000202DE9F84FDFF8B8910024A9F1A9
:10089000040B23460F2709F1040AABF1040EC9E04B
:1008A0000125A5402A40AA427DD1674ED1F804C057
:1008B000ACEB0608B44532D014DCBCF1030F3AD0DF
:1008C00009DCBCF1000F2AD0BCF1010F1CD0BCF137
:1008D000020F31D11DE0BCF1110F17D0BCF1120F86
:1008E0002AD119E0B8F5881F19D006DCB8F5803F89
:1008F00015D0B8F5801F1FD111E0B8F5001F0ED03C
:10090000B8F5041F18D10AE0CB6815E0CB681B1DB1
:1009100012E0CB6808330FE0CB680C330CE08B6837
:100920002BB1012B4FF0080303D0456104E00423F1
:1009300002E0056100E00023FF2A01D8064601E03D
:1009400000F104064FEA840501D9A5F12005D6F887
:10095000008007FA05FC28EA0C0803FA05F548EAC6
:100960000508C6F800804D68ED0062D5374DAE69C8
:1009700046F00106AE61AD6924F0030605F00105FD
:100980000095334D06EB050CDCF80850A607360F32
:1009900007FA06F825EA0805DFF8B880404503D1D4
:1009A0004FF0000817E044E0DFF8AC80404502D18A
:1009B0004FF001080FE0DFF8A480404502D14FF06E
:1009C000020808E0DFF89880404502D14FF00308A4
:1009D00001E04FF0040808FA06F848EA0508CCF8E8
:1009E00008804D68D9F80060ED024D4601D51643E8
:1009F00000E096432E604D68DAF80060AD0255467F
:100A000001D5164300E096432E604D68DBF8006088
:100A1000AD035D4601D5164300E096432E604D6858
:100A2000DEF80060ED03754601D5164300E09643FD
:100A30002E60641C0D682A46E5407FF431AFBDE8A6
:100A4000F88F00000804014000001110001002405F
:100A50000000014000080140000C0140001001406E
:100A6000001401400AB1016170470904FBE700006E
:100A700001488068704700006400002002488168D7
:100A8000027811448160704764000020074810B567
:100A9000016841F010010160032000F075F80F209B
:100AA00000F006F800F024F8002010BD00200240FD
:100AB00070B50D4D04464FF47A712878B1FBF0F013
:100AC0000A490968B1FBF0F000F0DCFA48B9102CD3
:100AD00007D200222146501E00F036F800206C603C
:100AE00070BD012070BD0000640000207000002077
:100AF0000C4808B5816941F001018161816901F00B
:100B000001010091C16941F08051C161C06900F0EB
:100B1000805000900448416821F0E06141F000718C
:100B2000416008BD0010024000000140002809DBC0
:100B300000F01F02012191404009800000F1E020F7
:100B4000C0F8001170470000F0B40E4B1B680C4653
:100B5000C3F30223C3F10705042D00D90425191D91
:100B6000072901D2002300E0DB1E012606FA05F169
:100B7000491E214099409E40761E16403143F0BCEC
:100B800001F068BE0CED00E0064900F007020868BD
:100B90004FF6FF03184040EA0220034A1043086062
:100BA000704700000CED00E00000FA052DE9F04769
:100BB0000F46050061D0434E306800F00700B84290
:100BC00009D2306820F0070038433060306800F008
:100BD0000700B84251D128683B4C810712D5400725
:100BE00003D5606840F4E06060602878000703D5B2
:100BF000606840F4605060606068A96820F0F000B0
:100C0000084360602878C00728D06868012810D0A1
:100C10002168022810D0890700292EDA616821F0A6
:100C2000030101436160FFF723FF804641F28839E9
:100C30000DE021688903EFE78901EDE7FFF718FF71
:100C4000A0EB0801494502D90320BDE8F0876068A0
:100C5000696800F00C00B0EB810FEFD1306800F054
:100C60000700B8420BD9306820F0070038433060E5
:100C7000306800F00700B84201D00120E5E728788D
:100C8000400705D56068E96820F4E06008436060CB
:100C90002878000706D56068296920F4605040EA8A
:100CA000C100606000F038F86168084AC1F30311C0
:100CB000515CC8400649086006480068FFF7F8FE26
:100CC0000020C2E70020024000100240FC5D000846
:100CD0007000002068000020044805490068496849
:100CE000044AC1F30221515CC840704770000020E3
:100CF000001002400C5E000804480549006849687D
:100D0000044AC1F3C221515CC84070477000002002
:100D1000001002400C5E00080E4A51680E4801F0B7
:100D20000C03042B11D0082B0FD10C48C1F38343C3
:100D3000C903C05C0AD55168084AC1F34041921EFC
:100D4000515C054A5043B0FBF1F0704704494843F9
:100D5000704700000010024000127A00EC5D0008AD
:100D600000093D002DE9F84F040070D02078C04DF7
:100D7000C00749D06868C0F38100012807D06868BF
:100D8000C0F38100022809D16868C00306D528682D
:100D9000800339D560680028E7D035E06068B0F599
:100DA000803F0BD010B1B0F5A02F11D0286820F4EF
:100DB00080302860286820F4802002E0286840F411
:100DC00080302860606890B1FFF752FE06460AE066
:100DD000286840F480202860F0E700BFFFF748FE55
:100DE000801B642873D828688003F7D50CE0FFF7D0
:100DF0003FFE064605E000BFFFF73AFE801B642871
:100E0000F0D828688003F7D420789A4E80074FF0F6
:100E100001094FF0000839D5686810F00C0F07D0B1
:100E20006868C0F38100022809D16868C00306D44D
:100E30002868800714D52069012808D110E02069AE
:100E4000B0B1C6F80090FFF713FE074605E00AE1CF
:100E5000FFF70EFEC01B0228C4D828688007F7D50C
:100E60002868616920F0F80040EAC10028600DE0C0
:100E7000C6F80080FFF7FCFD074604E0FFF7F8FD29
:100E8000C01B022823D828688007F7D420780007E1
:100E90002CD57948A169D9B1C0F80090FFF7E8FDD9
:100EA000074604E0FFF7E4FDC01B02280FD8686A7C
:100EB0008007F7D571484FF4FA510068B0FBF1F0A4
:100EC000009000BF0098411E0091FAD20EE080E031
:100ED000C0F80080FFF7CCFD074604E0FFF7C8FD2F
:100EE000C01B022875D8686A8007F7D420784007AD
:100EF00060D5E8690027C00008D4E86940F0805058
:100F0000E861E869012700F0805000905C480168C2
:100F1000C90513D40168834641F480710160FFF76D
:100F2000A7FD824606E000BFFFF7A2FDA0EB0A0086
:100F300064284ED8DBF80000C005F5D5E06801282C
:100F40000AD008B1052813D0286A20F001002862D1
:100F5000286A20F0040002E0286A40F001002862BC
:100F6000E06841F2883B98B1FFF782FD82460BE0D2
:100F7000286A40F004002862EEE700BFFFF778FD22
:100F8000A0EB0A0159455AD8286A8007F6D50CE02B
:100F9000FFF76EFD824605E0FFF76AFDA0EB0A0150
:100FA00059454CD8286A8007F6D41FB1E86920F06B
:100FB0008050E861E06988B36968C1F38101022962
:100FC00044D00228C6F8608004D0FFF751FD0446E3
:100FD00038E034E0FFF74CFD074604E0FFF748FD3A
:100FE000C01B02282BD828688001F7D4206AB0F5EE
:100FF000803F05D16868A16820F40030084368602C
:10100000D4E908010843696821F474110843686051
:10101000C6F86090FFF72CFD044606E025E000BF0F
:10102000FFF726FD001B022809D828688001F7D5A4
:101030001BE000BFFFF71CFD001B022802D90320A4
:10104000BDE8F88F28688001F4D40EE00128F7D0BD
:101050006868226A00F48031914204D1616A00F428
:101060007010884201D00120EAE70020E8E7000084
:101070000010024000004242800442427000002002
:101080000070004010B5401EB0F1807F01D30120F8
:1010900010BD4FF0E02460610F21601701F0DAFB12
:1010A0000020A06107202061002010BD704770471C
:1010B00070B590F83C20012A26D0012480F83C40ED
:1010C000022280F83D2003685A689D6822F070066D
:1010D0000A6832435A600D4B02689A4208D0B2F156
:1010E000804F05D00A4B9A4202D00A4B9A4204D153
:1010F000496825F080031943916080F83D40002144
:1011000080F83C10084670BD022070BD002C0140E4
:10111000000400400008004010B5040003D094F81B
:101120003D0010B107E0012010BD002084F83C0014
:10113000204600F01FF8022084F83D00211D2068A1
:1011400001F052F9012084F8460084F83E0084F84A
:101150003F0084F8400084F8410084F8420084F89D
:10116000430084F8440084F8450084F83D000020E2
:1011700010BD000008B5154A0168154891420ED10E
:10118000C16941F00201C161C069002200F00200A2
:10119000009001211D20FFF7D7FC1D2010E00D4A13
:1011A000914211D1C16941F00401C161C0690022BD
:1011B00000F00400009004211E20FFF7C5FC1E2053
:1011C000BDE80840FFF7B2BC08BD000000040040C5
:1011D000001002400008004090F83D10012901D0A5
:1011E00001207047022180F83D100168CA6842F072
:1011F0000102CA6000680B49884208D0B0F1804FF4
:1012000005D00949884202D00849884204D1816842
:1012100001F00701062903D0016841F001010160D6
:1012200000207047002C01400004004000080040EE
:1012300070B5044690F83C000025012817D001261F
:1012400084F83C60022084F83D002068826822F027
:10125000770222F47F4282600868502838D00DDC83
:1012600020284FD005DC90B3102811D14AE002208D
:1012700070BD302846D040280AD13BE060282FD0EE
:1012800070280DD0B0F5805F03D0B0F5005F12D0AC
:10129000012584F83D60002084F83C00284670BD9C
:1012A000CB68D1E90121206801F0D4F82068816879
:1012B00041F0770109E0CB68D1E90121206801F014
:1012C000C9F82068816841F480418160E1E719E054
:1012D000CA684968206801F0CFF85021206806E00C
:1012E000CA684968206801F0D8F86021206801F0D8
:1012F000BBF8CEE7CA684968206801F0BDF8402114
:101300002068F4E7226801461046F0E7704770B5A0
:101310000446006801694FF00005C943890715D4E8
:10132000C168C943890711D4E91E016101202077F2
:10133000206880698007204602D0FFF7E7FF04E0BD
:1013400000F098F8204600F0D1F825772068016970
:10135000C943490717D4C168C943490713D46FF07B
:1013600004010161022020772068806910F4407F29
:10137000204602D0FFF7CAFF04E000F07BF82046C9
:1013800000F0B4F8257720680169C943090716D42D
:10139000C168C943090712D46FF008010161042034
:1013A00020772068C0698007204602D0FFF7AEFF93
:1013B00004E000F05FF8204600F098F825772068F8
:1013C0000169C943C90617D4C168C943C90613D402
:1013D0006FF010010161082020772068C06910F4C7
:1013E000407F204602D0FFF791FF04E000F042F872
:1013F000204600F07BF8257720680169C943C907BA
:1014000008D1C168C943C90704D1891E01612046BA
:1014100000F06DF820680169C943090609D4C16864
:10142000C943090605D46FF0800101612046FFF72A
:101430003DFE20680169C943490609D4C168C94312
:10144000490605D46FF040010161204600F050F8D4
:1014500020680169C94389060BD4C168C94389065C
:1014600007D46FF0200101612046BDE87040FFF70E
:101470001EBE70BD2DE9F04105460068174988423F
:101480002AD1287F164C012811D12168001F08613C
:101490002768786BFEF783FF064612480068FEF760
:1014A00075FF3146FEF79EFEFEF797FF7863287FB3
:1014B000022811D12168C01F08612568A86BFEF7BA
:1014C0006EFF044608480068FEF760FF2146FEF7FD
:1014D00089FEFEF782FFA863BDE8F08100040040AA
:1014E000F80000200400002008000020704770472A
:1014F0007047704710B504460068406994F8411081
:10150000C0F3C010212911D180B12068143050E8F7
:10151000001F21F0800140E80012002AF5D1A06BE5
:1015200008B1FFF71DF8204601F062F82068406915
:1015300094F84210C0F38010222911D180B12068A4
:10154000143050E8001F21F0400140E80012002A4A
:10155000F5D1E06B08B1FFF703F8204601F021F860
:10156000002010BD70470000F8B501680446086807
:10157000CA684B6910F00F0F4FF000055AD003F006
:10158000010602F49077374365D0C10705D0D10535
:1015900003D5616C41F001016164410705D5D907AC
:1015A00003D0616C41F002016164810705D5D90760
:1015B00003D0616C41F004016164010707D502F0BA
:1015C0002001314303D0616C41F008016164616C1A
:1015D00000293BD0800604D5900602D5204601F0B4
:1015E00015F820684069616CC0F3801001F00801B3
:1015F000014320462BD000F0D4FF2068406940060C
:1016000021D52068143050E8001F21F0400140E847
:101610000012002AF5D1E06BA8B16D494163E06B7F
:10162000FEF7C2FF002811D0E06B416B01B0BDE8AE
:10163000F040084783060ED593060CD52046BDE83A
:10164000F84000F0E3BF2046FFF78CFFF8BDFFF73E
:1016500089FF6564F8BD266B2023012E7CD1C60668
:101660007AD5D60678D508684868009048694FF062
:101670000206400640D5E16B086840680004000C93
:10168000E8D0A28D8242E5D9E085886920282DD056
:1016900020680C3050E8001F21F4807140E80012EF
:1016A000002AF5D12168143151E8000F20F0010023
:1016B00041E80002002AF5D12068143050E8001FEC
:1016C00021F0400140E80012002AF5D184F84230B0
:1016D000256320680C3050E8001F21F0100140E81D
:1016E0000012002AF5D1E06BFEF73AFF6663A08D89
:1016F000E18D401A81B22AE0A08DE18D401A81B2BD
:10170000E08D0028A6D00029A4D022680C3252E82F
:10171000000F20F4907042E80007002FF5D12068F8
:10172000143050E8002F22F0010240E80027002F7B
:10173000F5D184F84230256320680C3050E8002F42
:1017400022F0100240E80023002BF5D1666320460A
:10175000FFF7CFFEF8BDFFE705062BD5150629D507
:1017600094F841002128F5D1A068B0F5805F01D13F
:101770002069B0B1206A411C21622168007848606C
:10178000E08C401E0004000CE084E3D12068C168B6
:1017900021F08001C1602068C16841F04001C16052
:1017A000D8E7206A0088C0F308004860206A801CDF
:1017B0002062E5E74006CDD55006CBD5CA68204665
:1017C00022F04002CA6084F8413000F03FF9C1E7DE
:1017D000FD24000870B5040004D094F841000025F1
:1017E00010B106E0012070BD84F84050204600F0A2
:1017F00023F8242084F841002068C16821F40051B6
:10180000C160204600F064FF2068016921F4904126
:1018100001612068416921F02A0141612068C168A5
:1018200041F40051C1606564202084F8410084F8CF
:1018300042006563002070BDF0B585B00024064607
:10184000009401940294039400682D49884254D175
:101850002C48816941F480418161816901F48041B2
:101860000491816941F0040181618069264D00F095
:10187000040004904FF400700090022001900320B7
:10188000039069462846FEF7FDFF2815CDE90004C0
:10189000694628460294FEF7F5FF1D4D1B48802738
:1018A000C5E90004C5E902472C616C61AC612846BA
:1018B000EC61FEF76FFF08B1FEF750FEF5636E6254
:1018C000134D12484435143801C5102091C51048F5
:1018D00045F8104944306C61AC61EC61FEF75AFF89
:1018E00008B1FEF73BFEB5630022032125206E629E
:1018F000FFF72AF92520FFF719F905B0F0BD000020
:101900000038014000100240000801405800024029
:10191000D00100200649884208D1C26B818D12682F
:101920005268891A8AB2034900F054B8704700001F
:1019300088010020780000202DE9F843044690F843
:1019400041001F4616460D46202802D00220BDE861
:10195000F8837DB176B100206064212084F84100D5
:10196000FFF786F8A6848046E684A068B0F5805F1D
:1019700002D003E00120EAE7206910B12E460025DD
:101980000EE000260CE08021204600F0FDFEA0B90C
:10199000AEB116F8010B21684860E08C401EE0846F
:1019A000E08C43464FF0000200970028EBD14FF047
:1019B0004001204600F0E8FE30B10320C7E735F8CB
:1019C000020BC0F30800E6E7202084F84100002065
:1019D000BDE7000070B5044690F84100202801D012
:1019E000022070BD49B342B32162A284E284002088
:1019F0006064212384F84130A56B114BAB62A56B69
:101A0000104BEB62A56B104B2B63A36B58632568DF
:101A100013462A1DA06BFEF7EBFE21686FF0400015
:101A200008602068143050E8001F41F0800140E851
:101A30000012002AF5D1002070BD012070BD000009
:101A400057250008992500080D25000870477047A4
:101A5000FEE7000070B50D4C0025C4F898510C4805
:101A6000016821F070410160016841F0405101605E
:101A7000C4F89C51022004F5CC7400F021FD012033
:101A80002060022000F01CFD256070BD0080214216
:101A9000000C01400E4810B5816986B041F0080184
:101AA000816180690B4C00F008000490C020009018
:101AB000012001900290032003900122C0212046C2
:101AC000FEF7D0FF69462046FEF7DCFE06B010BDEB
:101AD00000100240000C014070B50D4C0025C4F808
:101AE00098510C48016821F070410160016841F093
:101AF000405101600126C4F89C61022004F5CC74B9
:101B000000F0DEFC2660022000F0DAFC256070BDEB
:101B100000802142000C01402DE9F0478146174822
:101B20000024016821F070410160016841F000412A
:101B30000160134E254627464FF00108C6F89871FC
:101B4000022000F0BDFCC6F898816006040ED6F8AD
:101B50001C0108B1641CE4B2022000F0B1FC6D1C51
:101B6000EDB2082DEAD3B9F1000F04D0FFF772FFF0
:101B70002046BDE8F087FFF7AFFFF9E7000C014012
:101B8000008021422DE9F04106461248016821F00B
:101B900070410160016841F0405101600E4C002726
:101BA000C4F898713D464FF00108F009C4F89C0153
:101BB0007006060EC4F89881022000F081FCC4F87B
:101BC0009871022000F07CFC6D1CEDB2082DECD366
:101BD000BDE8F081000C01400080214270B50D4845
:101BE000016821F070410160016841F040510160DD
:101BF000094C0120C4F89C01C4F89801022004F5A6
:101C0000CC7400F05DFC00256560022000F058FCFB
:101C1000256070BD000C0140008021420E4810B5C7
:101C2000016821F070410160016841F0405101609C
:101C30000A4C0020C4F89801C4F89C01022004F565
:101C4000CC7400F03DFC012020606060BDE81040D5
:101C5000022000F035BC0000000C01400080214251
:101C600070B513480024016821F0704101600168DB
:101C700041F0004101600F4D0126C5F89C61022032
:101C800000F01EFCC5F89861022000F019FC07E086
:101C9000641CE4B2FA2C03D9FFF7C0FF012070BD29
:101CA000D5F81C010028F3D1C5F8980170BD0000DB
:101CB000000C0140008021422DE9F0411D461446F0
:101CC0000F460646FFF78AFF7006000EFFF75AFF21
:101CD000FFF7C6FF20B1FFF7A1FF0120BDE8F081AB
:101CE0003846FFF74FFFFFF7BBFFFFF777FF0120F5
:101CF00000EB4600C0B2FFF745FFFFF7B1FF09E078
:101D0000012C0DD05FF00100FFF706FF641E05F8FF
:101D1000010BE4B2002CF3D1FFF780FF0020DDE7D8
:101D20000020F1E72DE9F0411E4615460F46044616
:101D3000FFF754FF6006000EFFF724FFFFF790FF48
:101D400060B93846FFF71EFFFFF78AFF00240CE05A
:101D5000305DFFF717FFFFF783FF20B1FFF75EFF4E
:101D60000120BDE8F081641CE4B2AC42F0D3FFF77F
:101D700055FF0020F5E700000D4808B5416941F026
:101D8000010141614069002200F00100009011460C
:101D90000E20FEF7D9FE0E20FEF7C8FE00221146E7
:101DA0000F20FEF7D1FEBDE808400F20FEF7BEBEB3
:101DB000001002402DE9F04786B000242C48009422
:101DC000019402940394816941F010018161816959
:101DD00001F010010491816941F020018161816964
:101DE00001F020010491816941F004018161816960
:101DF00001F004010491816941F008018161806969
:101E0000012200F00800DFF86C8055030490294699
:101E10004046FEF727FEDFF860A00022382150463A
:101E2000FEF720FEDFF85490AF0000223946484606
:101E3000FEF718FE0095022601250396CDE9015410
:101E400069464046FEF71EFD00970396CDE9015412
:101E500069464846FEF716FD3820CDE90005CDE974
:101E6000024669465046FEF70DFD06B0BDE8F08714
:101E7000001002400010014000080140000C014029
:101E800010B586B00024184800940194029403947D
:101E900004941449059401604721C0E901144FF6E8
:101EA000FF71C0E903148461FFF736F908B1FEF74A
:101EB00055FB4FF48050009069460B48FFF7B8F986
:101EC00008B1FEF74BFB049404A907480594FFF7FB
:101ED000EFF808B1FEF742FB0348FFF77DF906B0C3
:101EE00010BD000000080040400100200C4810B563
:101EF0000A4901604FF4E1314160002181600C2208
:101F0000C160C0E904128161C161FFF763FC002870
:101F100003D0BDE81040FEF721BB10BD00380140E2
:101F200088010020FEE7FEE770B50024002104F1DF
:101F3000B00000F0B6F90021084600F0B2F9002127
:101F4000102000F0AEF900250121002000F0A9F9D1
:101F50006D1CEDB2802DF7D3641CE4B2082CE5D3E0
:101F600070BD000070B501220B4D140221462846B9
:101F7000FEF778FD0122560231462846FEF772FD33
:101F8000002231462846FEF76DFD21462846BDE871
:101F900070400022FEF766BD000C014070B50122C2
:101FA0000E4D140221462846FEF75CFD6600002215
:101FB00031462846FEF756FD012221462846FEF707
:101FC00051FD012231462846FEF74CFD21462846A8
:101FD000BDE870400122FEF745BD0000000C014045
:101FE00070B50A4C00224FF400712046FEF73AFD0E
:101FF0000122150229462046FEF734FD29462046D7
:10200000BDE870400022FEF72DBD0000000C01402D
:10201000F0B585B0002400940194029464200394E8
:10202000FEF71EFC5548816941F008018161816914
:1020300001F008010491816941F008018161806922
:10204000012200F008004E4E150204902946304649
:10205000FEF708FD0122570239463046FEF702FD21
:102060004FF4407000900120CDE90104022003905C
:1020700069463046FEF706FC69463046FEF702FC2C
:10208000012229463046FEF7EDFC01223946304652
:10209000FEF7E8FC6420FEF7E3FB0021AE2000F031
:1020A00000F90021084600F0FCF80021102000F0A3
:1020B000F8F80021402000F0F4F80021B02000F0F2
:1020C000F0F80021812000F0ECF80021FF2000F062
:1020D000E8F80021A12000F0E4F80021A62000F09B
:1020E000E0F80021A82000F0DCF800213F2000F0FB
:1020F000D8F80021C82000F0D4F80021D32000F047
:10210000D0F80021084600F0CCF80021D52000F0DE
:10211000C8F80021802000F0C4F80021D82000F089
:10212000C0F80021052000F0BCF80021D92000F003
:10213000B8F80021F12000F0B4F80021DA2000F016
:10214000B0F80021122000F0ACF80021DB2000F0F4
:10215000A8F80021302000F0A4F800218D2000F024
:10216000A0F80021142000F09CF80021AF2000F01E
:1021700098F8FFF7D9FE05B0F0BD0000001002404E
:10218000000C014010B50A460446002102F1B000DF
:1021900000F087F8102040EA1410002100F081F8C8
:1021A00004F00F00BDE81040002100F07AB80000F4
:1021B0002DE9F041203A00240D468046D6B27F2812
:1021C00003D900208D1C8046EDB2102B294610D07B
:1021D000FFF7D8FF164906EB460001EB4005012149
:1021E000285D00F05EF8641CE4B2062CF7D3BDE86D
:1021F000F081FFF7C7FF0F4F04EB06100121385C99
:1022000000F04FF8641CE4B2082CF5D36D1CE9B261
:102210004046FFF7B7FF002404EB061038440121C5
:10222000007A00F03EF8641CE4B2082CF4D3DEE738
:102230008C490008B44B00082DE9F05F0026DDF85A
:1022400028901D4692468B46804634464FEA5907F1
:1022500023E0281B401EC1B20A2002F011FBBAFB8A
:10226000F0F00A21B0FBF1F201FB120026B9691E61
:102270008C4201DA38B101263030C2B207FB04804B
:10228000C0B24B4604E007FB0480C0B24B4620229C
:102290005946FFF78DFF641CE4B2AC42D9D3BDE8C8
:1022A000F09FC0B209B100F048B800F02FB80000AC
:1022B0002DE9F041144F04464FF480760022314658
:1022C0003846FEF7CFFB00254FF4007804F080007D
:1022D000802816D0002241463846FEF7C3FB600630
:1022E000040E012231463846FEF7BCFB002231467F
:1022F0003846FEF7B7FB6D1CEDB2082DE6D3BDE8FE
:10230000F0810122E7E70000000C014010B504460F
:10231000FFF728FE7820FFF7CBFFFFF761FE0020D4
:10232000FFF7C6FFFFF75CFE2046FFF7C1FFFFF790
:1023300057FEBDE81040FFF731BE10B50446FFF769
:1023400011FE7820FFF7B4FFFFF74AFE4020FFF7A9
:10235000AFFFFFF745FE2046FFF7AAFFFFF740FE5D
:10236000BDE81040FFF71ABE70477047FEF786BB06
:1023700030B58FB028216846FDF71CFF14210AA84C
:10238000FDF718FF01210804CDE900100024029494
:1023900002250491CDE907504FF4E01009906846FA
:1023A000FEF7E0FC08B172B6FEE70F20CDE90A05A2
:1023B0004FF48060CDE90C4002210AA80E94FEF78C
:1023C000F5FB002801D072B6FEE70FB030BD7047B4
:1023D0000148FEF79CBF0000F80000200148FEF70E
:1023E00096BF000040010020F0B50268164B174C64
:1023F000174D4FF08047984205D0B84203D0A04215
:1024000001D0A84203D122F070064A6832439842B4
:1024100005D0B84203D0A04201D0A84203D122F493
:102420004074CA6822434C6922F080022243026051
:102430008A68C2620A688262984201D109690163AE
:1024400001214161F0BD0000002C0140000400406A
:102450000008004010B5846842EA032224F47F4457
:102460000A432243826010BD826822F070020A4350
:1024700042F007018160704710B5036A046A24F0D6
:1024800001040462846924F0F00444EA021423F095
:102490000A020A438461026210BD10B5036A046A2D
:1024A00024F010040462846923F0A00324F470442F
:1024B00044EA023243EA01118261016210BD000068
:1024C0000D4900220B685A620A68136843F0010341
:1024D000136009684A6A8242FCD3086A41F2111209
:1024E000104207D1086A9210104203D1086820F008
:1024F00001000860704700004001002010B5406AEC
:102500000021C185C184FFF72DF810BD70B5446A64
:102510002068406994F84110C0F3C01000252129BB
:1025200004D118B1E584204600F062F820684069C3
:1025300094F84210C0F38010222904D118B1E58527
:10254000204600F02EF8606C40F0100060642046D9
:10255000FFF708F870BD10B50146406A09680968C0
:10256000890616D40021C1840168143151E8002F76
:1025700022F0800241E80023002BF5D101680C31E4
:1025800051E8002F42F0400241E80023002BF5D132
:1025900010BDFFF75BFA10BD10B5406AFFF757FAA0
:1025A00010BD01680C3151E8002F22F4907241E80F
:1025B0000023002BF5D10168143151E8002F22F0DF
:1025C000010241E80023002BF5D1016B012909D15B
:1025D00001680C3151E8002F22F0100241E800237D
:1025E000002BF5D1202180F84210002101637047B3
:1025F00001680C3151E8002F22F0C00241E80023AD
:10260000002BF5D1202180F84110704708B590F8D3
:102610004210222901D0022008BD82684FF4805365
:102620009A4201D1016921B1816A9A421BD04AB113
:102630000AE00268816A5268C2F308020A80816A6D
:10264000891C08E0026972B10268526802F07F02D8
:102650000A70816A491C8162C18D491E0904090CF6
:10266000C18503D01BE002685268F1E70168CA68BF
:1026700022F02002CA600168CA6822F48072CA602F
:1026800001684A6922F001024A61202180F8421063
:1026900000214163026B012A03D0FFF73BF90020C0
:1026A00008BD016301680C3151E8002F22F01002CF
:1026B00041E80023002BF5D101680A68D20602D553
:1026C0000A6849680091818DFEF713FFE7E7000073
:1026D00070B5044600680169E26821F44051114375
:1026E00001612169A0680843616908432168CA68DB
:1026F00041F20C639A430243CA6020684169A269AF
:1027000021F44071114341611E492068884202D181
:10271000FEF7F2FA01E0FEF7DFFA00EBC00101EB91
:102720000012606864218000B2FBF0F3B3FBF1F3A8
:102730006FF018067343B2FBF0F5B2FBF0F605EB51
:102740008305322303EB0515B5FBF1F5B6FBF1F676
:1027500005F0F00505EB0615B2FBF0F6B2FBF0F064
:10276000B0FBF1F06FF01802504306EB800003EB72
:102770000010B0FBF1F0216800F00F0028448860E1
:1027800070BD0000003801402DE9F0419846174621
:102790000E460446069D27E0681C25D02DB1FEF7A5
:1027A00067F9A0EB0800A8421ED920680C3050E859
:1027B000001F21F4D07140E80012002AF5D12068F2
:1027C000143050E8001F21F0010140E80012002AF7
:1027D000F5D1202084F8410084F84200002084F8DC
:1027E00040000320BDE8F0812068006836EA000060
:1027F00004D00020B842CFD00020F3E70120F9E751
:1028000010B50A48FEF7B0FE084800680168C943E1
:10281000C90609D4016840680448FEF76BFEBDE8AC
:1028200010400248FFF776B810BD00008801002074
:10283000FEE700000FB4054B10B503A9044A029847
:1028400000F028F810BC5DF814FB000069350008A2
:10285000740000200907090E002804DB00F1E020C5
:1028600080F80014704700F00F0000F1E02080F8BD
:10287000141D704702E008C8121F08C1002AFAD1CF
:1028800070477047002001E001C1121F002AFBD1F0
:10289000704700002DE9FF4F8DB00F46054600261A
:1028A00006E025280BD0DDE90F1290476D1C761C41
:1028B00028780028F5D111B03046BDE8F08F00240B
:1028C000A246A1460122EC4900E0044315F8013F6D
:1028D000203B02FA03F00842F7D128782A2810D0CA
:1028E0006FF02F022878A0F13001092914D80AEBE3
:1028F0008A0102EB410144F0020400EB010A6D1C65
:10290000F0E701CF5FEA000A03D544F40054CAF1AE
:10291000000A44F002046D1C28782E2817D115F8FF
:10292000010F44F004042A280ED06FF02F022878FB
:10293000A0F1300109290AD809EB890102EB410114
:1029400000EB01096D1CF2E757F8049B6D1C287819
:102950006C280FD006DC4C2817D068280DD06A28C8
:1029600014D104E0742810D07A280FD10DE044F47B
:1029700000140AE044F4801401E044F4401469783F
:10298000814202D104F580146D1C6D1C2A786E2AD8
:102990001FD00CDC632A31D004DC002A8BD0582AEB
:1029A00011D1A3E0642A68D0692A0CD165E0732AAA
:1029B0002ED004DC6F2A73D0702A04D19BE0752AD4
:1029C0006FD0782A6ED01046DDE90F129047761C42
:1029D00050E1C4F30250022806D0032809D004288D
:1029E00001CF09D0066045E101CFF117C0E90061D0
:1029F00040E101CF06803DE106703BE117F8040B92
:102A00008DF8000000208DF80100EB46012003E066
:102A100057F804BB4FF0FF3061074FF0000102D4BC
:102A20000DE008F10101884649450FDA8045F8DBE1
:102A30001BF808100029F4D108E008F101018846CC
:102A40008142FADB1BF808100029F6D1DDE90F23DB
:102A5000AAEB08008146214600F036F9304400EB2D
:102A6000080604E0DDE90F121BF8010B9047B8F1EE
:102A70000108F7D221464846F7E00A21C4F3025381
:102A80004FF0000B0891022B04D001CFC117032B8C
:102A900009D00AE0FF1D27F00707F7E8020108E068
:102AA00032E01FE020E000B2C117042B01D140B298
:102AB000C117031E71F1000307DA4FF0000CD0EBD1
:102AC0000C006CEB01012D2302E0230504D52B2320
:102AD0008DF82430012303E0E30701D02023F7E73A
:102AE000984658E00A2110E010210EE010204FF027
:102AF000000B08900CE010214FF0000B44F0040490
:102B00004FF00809089103E008214FF0000B0891ED
:102B1000C4F30253022B04D001CF0021032B06D0B3
:102B200006E0FF1D27F00707F7E8020103E080B287
:102B3000042B00D1C0B24FF0000823072BD5702A18
:102B400007D0DDF820C08CF0100C5CEA0B0C05D02F
:102B50000EE040238DF82430012308E050EA010301
:102B600006D030238DF824308DF825200223984696
:102B7000DDF820C08CF0080C5CEA0B0C0BD150EA9D
:102B8000010301D1630706D530238DF824304FF0BF
:102B90000108A9F10109582A04D038A20B9208AA09
:102BA0000A920BE03AA2F9E75B46089AFDF729FC86
:102BB0000B9B9B5C0A9A521E0A92137050EA010208
:102BC000F2D10A98ADEB000000F1200B600702D5AE
:102BD00024F4803401E04FF00109D94502DDA9EB6E
:102BE0000B0000E0002000EB0B0141440890AAEB31
:102BF000010AE00306D4DDE90F232146504600F028
:102C000063F806444FF0000908E009A911F809002B
:102C1000DDE90F12904709F10109761CC145F4DB8B
:102C2000E0030CD5DDE90F232146504600F04CF8B7
:102C3000064404E0DDE90F1230209047761C089925
:102C4000481E08900029F5DC08E00A980A990078E7
:102C5000491C0A91DDE90F129047761CBBF1000177
:102C6000ABF1010BF1DC21465046DDE90F2300F00A
:102C700019F806446D1C1BE6092801003031323377
:102C800034353637383961626364656600000000A8
:102C90003031323334353637383941424344454692
:102CA000000000002DE9F041044600251E461746AD
:102CB000880404D405E039462020B0476D1C641E0A
:102CC000F9D52846BDE8F0812DE9F04104460025FC
:102CD0001E469046C80301D5302700E0202788040F
:102CE00004D505E041463846B0476D1C641EF9D551
:102CF0002846BDE8F08100002DE9FE4F07460E464C
:102D00000025684600F03CFC00246FF00F0AE846FE
:102D10004FF0010957F8240056F82410401A00D546
:102D20004042FDF733FB5146FDF724FB58F82410D1
:102D300011F0FF4F0BD0FDF7DFFA4FF07E51FDF79A
:102D4000A3FA0A4920F00040884205DC07E0084960
:102D500008440849884202D309FA04F00543641C78
:102D6000032CD7DB2846BDE8FE8F0000295C0F3E10
:102D7000666666C19A99D90008B560B120208DF8C1
:102D8000000028208DF8010030208DF80200382046
:102D90008DF8030004E0A32204216846FDF703FA3E
:102DA0006A46042140F69E2001F040FD01F002FA3F
:102DB00008BD00003EB5044602208DF80000CA2080
:102DC0008DF80100E3208DF8020009208DF8030042
:102DD0006A460421682001F029FDA3208DF8000037
:102DE000610609D5C0218DF80110C8218DF80210A7
:102DF000C2218DF8031005E08DF801008DF8020066
:102E00008DF8030014F4C07F09D0C4218DF804109C
:102E1000CC218DF80510C6218DF8061005E08DF83F
:102E200004008DF805008DF806008DF808008DF877
:102E300007008DF809006A460A2140F6A72001F034
:102E4000F5FCA0074FF0D80503D020208DF8000036
:102E500001E08DF800506A46012140F6B62001F0ED
:102E6000E5FCA00601D5012000E0002000F08EF86E
:102E700014F4C07F1ED0E0050AD5B2208DF8000002
:102E80008B208DF80100B6208DF802009B2009E010
:102E9000B0208DF8000080208DF80100B4208DF85E
:102EA000020090208DF803006A46042140F6A2201B
:102EB00001F0BCFCE1074FF40B6022D0F8218DF843
:102EC00000106A46012101F0B1FCFA21072000F050
:102ED00097FA072000F062FA012000F07FFA6420E0
:102EE00000F022FB4FF4FA7000F02EFBC8212548B9
:102EF00000F01CFA282000F031FA0A2000F03EFA17
:102F000005E08DF800506A46012101F08FFCA00712
:102F100003D5D9208DF8000001E08DF800506A46F5
:102F2000012140F23D7001F081FC600701D50120D4
:102F300000E0002000F048F8E00601D5012000E0A4
:102F40000020FFF719FF104D44F00800688101F0E0
:102F500031F90020A873600601D50620A87314F487
:102F6000C07F02D0A87B801DA87314F0140F02D07C
:102F7000A87B1030A873A00702D0A87B001DA873FF
:102F800000203EBD09E3CA02580200200EB54FF4EE
:102F9000976310B106A107C901E008A207CA8DE82E
:102FA00007006A460921184601F040FC0EBD0000EA
:102FB000B8AAB38DB4980D355D000000B8AAAAAACE
:102FC000B088C3C5C700000008B560B1C0208DF847
:102FD0000000C2208DF80100C4208DF80200C62038
:102FE0008DF8030004E08B2204216846FDF7DBF82E
:102FF0006A46042140F6982001F018FC01F0DAF846
:1030000008BD0000C8234FF48062024940F6F63044
:1030100000F0FABFF45100082DE9FF41044603A86F
:1030200000F0A8FEBDF80C00410CC3032F48028934
:1030300002F00300550754F8200000D54042C2F3C7
:10304000C105960654F8255000D56D42C2F381168D
:10305000D20554F8264000D56442A0FB0367C2178E
:1030600002FB037200FB0120820042EA9670A5FB7E
:103070000367EA1702FB037205FB0122950045EA8C
:103080009672A4FB0367E51705FB037304FB01318C
:103090008B0043EA9671030E8DF80030030C8DF817
:1030A0000130030A8DF802308DF80300100E8DF800
:1030B0000400100C8DF80500100A8DF80600080EAB
:1030C0008DF80800080C8DF80900080A8DF80A0030
:1030D0008DF807208DF80B106A460C214FF42570EF
:1030E00001F0A4FB04B0BDE8F0810000580200200C
:1030F00030B5044613A285B007CA8DE807004FF02B
:10310000FF35C82C16D8C820B0FBF4F1491E080AB8
:103110008DF80C008DF80D1003AA022140F2162044
:1031200001F084FB30B96A460C2140F6C12001F061
:103130007DFB10B1284605B030BD054884810020D4
:10314000F9E70000FEF2ABC4AAF1DFDFBBAFDFDFBF
:1031500058020020F8B53049098901F0030250F8FF
:1031600022404A0700D56442C1F3C1028B0650F8E1
:10317000222000D55242C1F3811350F82330C805F4
:1031800000D55B42254984FB0140850045EA9470E7
:1031900082FB0142A40F44EA820483FB0121950FC4
:1031A00045EA8105010E8DF80010010C8DF8011023
:1031B000010A8DF802108DF803006A4604214FF4CD
:1031C000747001F033FB4FF0FF3688B9200E8DF894
:1031D0000000200C8DF80100200A8DF802008DF807
:1031E00003406A4604214FF4757001F01FFB08B1DB
:1031F0003046F8BD280E8DF80000280C8DF801002F
:10320000280A8DF802008DF803506A4604214FF415
:10321000767001F00BFBF8BD5802002009E3CA02EA
:103220002DE9FF4104463CA004F00303006802902E
:103230003AA0006803903AA006683AA0056802A880
:10324000C15C8DF80010C4F3C101425C8DF801200F
:10325000C4F38112805C8DF8020003A8C35C8DF872
:103260000430415C8DF80510805C8DF806006A46DC
:10327000032140F2264001F0D9FA4FF0FF37E0BBBE
:1032800001AA032140F22A4001F0D0FAA8BBCDE9FF
:10329000006560070BD59DF8000040F001008DF837
:1032A00000009DF8040040F001008DF80400A00625
:1032B0000BD59DF8010040F001008DF801009DF84C
:1032C000050040F001008DF80500E0050BD59DF8E4
:1032D000020040F001008DF802009DF8060040F069
:1032E00001008DF806006A4603214FF4886001F062
:1032F0009DFA10B901AA032100E004E040F2314038
:1033000001F094FA18B1384604B0BDE8F0810648DF
:1033100004810020F8E700004CCD6C000CC92C00A3
:103320003656760026466600580200204FF47A7220
:1033300090FBF2F008B54843010E8DF80010010C27
:103340008DF80110010A8DF802108DF803006A460D
:1033500004214FF4AE7001F069FA08BD0521B0FBFD
:10336000F1F008B5010A8DF800108DF801006A46E9
:1033700002214FF4AD7001F059FA08BD0521B0FBF0
:10338000F1F008B5010A8DF800108DF801006A46C9
:1033900002214FF4AC7001F049FA08BD08B50021D4
:1033A0008DF80010C10702D030218DF80010810780
:1033B00005D59DF8001041F00C018DF80010400774
:1033C00005D59DF8000040F003008DF800006A4626
:1033D00001214FF4A47001F029FA08BD08B560B1CD
:1033E000042800D90420401E8DF800006A460121FF
:1033F00040F24F1001F01AFA08BD0120F3E7000077
:103400002DE9FC41054640074FF0FF367CD0B1F571
:10341000C86F79D80846FCF7C2FF3E49FCF76CFF3D
:10342000074601A800F088FC9DF80400022806D099
:1034300004280DD008282ED0102865D134E00E21A4
:103440003846FCF797FFFCF7C8FF84B2324907E023
:103450000D213846FCF78EFFFCF7BFFF2F4984B2E1
:103460003846FCF717FFFCF7B8FF210A8DF800106B
:1034700080B28DF80140010A8DF802108DF803002A
:10348000E8076C4620D0224602214FF4EA7001F092
:10349000CDF9C8BB11E00C213846FCF76BFFFCF7F7
:1034A0009CFF84B21E49DBE70B213846FCF762FF24
:1034B000FCF793FF84B21B49D2E7A21C02214FF410
:1034C000927001F0B3F9F8B9A8070DD56A46022148
:1034D0004FF4EC7001F0AAF9B0B9A21C02214FF42C
:1034E000947001F0A3F978B9680710D56A460221F3
:1034F0004FF4EE7001F09AF930B9A21C02214FF49A
:10350000967001F093F910B13046BDE8FC810020BF
:10351000FBE7000000004843000040460000C045B3
:10352000000040450000C0440521B0FBF1F008B5A3
:10353000010A8DF800108DF801006A4602214FF44F
:10354000EF7001F073F908BD0521B0FBF1F008B58B
:10355000010A8DF800108DF801006A4602214FF42F
:10356000ED7001F063F908BD13B54FF6FF7301224A
:1035700069460248FEF7E0F900981CBD880100206A
:103580002DE9FE430646264801AB042240680D2182
:103590000078FEF791FB10B10720BDE8FE839DF88F
:1035A00004101C2000EAD1029DF80710DFF8749087
:1035B000C1F301131A438DF800209DF80520C1F3D3
:1035C000810300EAD2021A438DF801209DF80620FB
:1035D00001F0030100EAD20008430024124F8DF8E5
:1035E0000200A0466D46285D10B146F824900AE01E
:1035F00046F824800DE000BF56F824003946FCF759
:1036000049FE46F82400285D401E10F0FF002855B2
:10361000F2D1641CE4B2032CE5D30020BDE7000026
:103620002C0000207B14AE3E1D5A843F2DE9FE4F36
:1036300005460120C14E8DF800004FF000088DF8BE
:10364000018030680C461746817C70686B46022208
:103650000078FEF767FB4FF0FF3A00287AD1C820C8
:10366000FDF7FEF88DF8008030686B460122C17BC3
:1036700070680078FEF756FB0028EFD130686B4683
:103680000122417970680078FEF74CFB0028E5D1F3
:1036900030686B460122817C70680078FEF742FB3F
:1036A0000028DBD130686B460122C17D706800784C
:1036B000FEF738FB0028D1D130686B460122017932
:1036C00070680078FEF72EFB0028C7D14FF00C0978
:1036D0008DF8009030686B4601220179706800789F
:1036E000FEF720FB002835D10F20FDF7B9F8B06AAE
:1036F0006B460122407A8DF800003068817870684E
:103700000078FEF70FFB002824D1B06A6B46012237
:10371000007A8DF800003068417870680078FEF714
:1037200001FB002873D1B06A807A0FB140F0E0004D
:103730008DF8000030686B4601228179706800784E
:10374000FEF7F0FA002862D12FB1B06AC07A40F0DB
:10375000E00001E04AE018208DF8000030686B4678
:103760000122C17970680078FEF7DCFAF0BB17B16E
:10377000C820FDF775F840208DF8000030686B46D2
:103780000122017970680078FEF7CCFA70BB7820CE
:103790008DF8000030686B4601224179706800782E
:1037A000FEF7C0FA10BB3220FDF75AF88DF8008002
:1037B000306847466B464179706801220078FEF711
:1037C000B1FA98B931687068B046897A00786B466A
:1037D0000222FEF771FA48B9BDF80000AF6040BAA6
:1037E000B0FBF9F06F60C6B22F6000E00FE0A76099
:1037F00067602760002739E0D8F80010D8F8040087
:103800006B46C97A00780C22FEF756FA10B1504682
:10381000BDE8FE8FBDF80000236840BA02B2BDF8D3
:103820000200BDF804101A44226040BA626800B277
:103830001044606049BAA06809B20844A060BDF8AD
:1038400006002B6840BA02B2BDF808001A4440BA1C
:1038500001B2BDF80A002A606A6840BA1144696082
:10386000A96800B208447F1CFFB2A860B742C3D366
:1038700028688322C117090441EA1041000400238B
:10388000FCF750FC32460023FCF74CFC28606868CB
:103890008322C117090441EA104100040023FCF708
:1038A00041FC32460023FCF73DFC6860A868832297
:1038B000C117090441EA104100040023FCF732FC5F
:1038C00032460023FCF72EFCA86020684FF4006508
:1038D000C117090441EA104100042A460023FCF7FD
:1038E00021FC32460023FCF71DFC206060682A465C
:1038F000C117090441EA104100040023FCF712FC3F
:1039000032460023FCF70EFC6060A0682A46C1170F
:10391000090441EA104100040023FCF703FC32468D
:103920000023FCF7FFFBA060002802DDA0F580303B
:1039300001E000F58030A060002069E72C00002045
:103940002DE9F84F81462E488846002540686B4691
:10395000032200780D21FEF7AFF910B10720BDE872
:10396000F88F9DF80000002400F01F008DF8000083
:103970009DF801006FF00F0B00F01F008DF80100A3
:103980009DF802006E4600F01F008DF802004FF017
:10399000010A00BF59F8241058F82400081A00D56D
:1039A0004042FCF7F3FC5946FCF7E4FC0746305D67
:1039B000C0B1144802E01449FCF76CFC315D491EAB
:1039C00011F0FF013155F6D101463846FCF794FC61
:1039D0004FF07E51FCF758FC0C4920F00040884223
:1039E00005DC07E00A483844B0F1D97F02D90AFA69
:1039F00004F00543641C032CCCDB2846AFE7000031
:103A00002C0000200000C84154E3853F295C0F3E94
:103A10000000E0BE10B5FEF74FF9002010BD90F990
:103A20000010002902DD4FF00000704702DA4FF06D
:103A30000400704790F90110002902DD4FF00100E9
:103A4000704702DA4FF00500704790F90200002835
:103A500002DD4FF00200704702DA4FF006007047B7
:103A60004FF007007047000008B5FDF70FF8FEF7AC
:103A70007FFCFEF79FF9FEF77FF9FEF737FAFEF7B6
:103A8000C7FAFEF751FAFEF7FBF91020009008483C
:103A90000223032102780020FEF7CEFB05A0FEF7EB
:103AA000C9FE00F041F8014606A0FEF7C3FEFEE79E
:103AB00000000020426C616E63655F4361720D0A15
:103AC000000000006D70755F73746174653A2025A5
:103AD000640D0A002DE9F041124C20F0010100258F
:103AE00094F8240010B10020BDE8F081A07A4FF0D6
:103AF000FF3668B10840277C2074884200D03546E4
:103B000041B1012000F016FF00F054FB38B12774DA
:103B10003046E9E7207D00B1012000F00BFF284688
:103B2000E2E700002C000020F8B5FDF7B3FF00200D
:103B3000344C0090052020706B46012275216820CE
:103B4000FFF768FF30A0FEF775FE9DF800106829AA
:103B500002D036A0FEF76EFE0220207000F090F931
:103B600008B10120F8BD782000F004FE10B934A09F
:103B7000FEF760FE7820FFF7ADFF10B937A0FEF723
:103B800059FE642000F0B6FD10B93BA0FEF752FECE
:103B900003202070FFF736FA10B93FA0FEF74AFE67
:103BA00047480546FFF73BFF0646E81CFFF737FF8F
:103BB00046EAC006A81DFFF732FF46EA801080B231
:103BC000FFF72EFB10B93FA0FEF734FE40F2731052
:103BD000FFF7F0F810B943A0FEF72CFE0420207088
:103BE0006420FFF785FA10B944A0FEF723FE00F029
:103BF0004FFE012000F0A4FC48A0FEF71BFE0020B1
:103C0000F8BD0000000000206D70755F7365745F83
:103C100073656E736F7220636F6D706C6574652071
:103C20002E2E2E2E2E2E0D0A000000006661696CCD
:103C30006520202025642E2E2E2E2E2E0D0A00000B
:103C40006D7075C9E8D6C3B4ABB8D0C6F7CDEAB3CA
:103C5000C9202E2E2E2E2E2E0D0A00006D7075C539
:103C6000E4D6C34649464FCDEAB3C9202E2E2E2EA8
:103C70002E2E0D0A000000006D7075C9E8B6A8B5BB
:103C8000C4B2C9D1F9C2CACDEAB3C9202E2E2E2E94
:103C90002E2E0D0A00000000444D50BCD3D4D8B6DF
:103CA000AFD7F7C7FDB6AFB3CCD0F2B9CCBCFECD21
:103CB000EAB3C9202E2E2E2E2E2E0D0A0000000053
:103CC00058000020444D50C9E8D6C3CDD3C2DDD240
:103CD000C7B7BDCFF2CDEAB3C9202E2E2E2E2E2E81
:103CE0000D0A0000444D50CAB9B9A6C4DCCDEAD5CE
:103CF000FB202E2E2E2E2E2E0D0A0000444D50C9D4
:103D0000E8B6A84649464FCBD9C2CACDEAB3C920C6
:103D10002E2E2E2E2E2E0D0A000000006D7075C95D
:103D2000E8D6C3444D50D7B4CCACCDEAB3C9202EAD
:103D30002E2E2E2E2E0D0A000D494A7A42B1012A4E
:103D400008D0022A0FD0032A0FD04FF0FF3070475F
:103D5000022200E004220270C97C11B11106C90DD3
:103D60000170002070470822F5E71022F3E70000F9
:103D70002C0000200F494A7A42B1012A09D0022AB8
:103D800011D0032A12D04FF0FF3070474FF4804219
:103D900001E041F69C720280C97C11B1C2F34E0170
:103DA0000180002070474FF48052F4E74FF4006226
:103DB000F1E700002C0000200B49097A39B10129F4
:103DC00007D002290AD003290BD0002103E0FA21F1
:103DD00001E04FF4FA710180002070474FF47A71CE
:103DE000F9E74FF4FA61F6E72C0000200A49097A56
:103DF00041B1012908D002290AD003290AD04FF085
:103E0000FF307047054900E0054901600020704718
:103E10000449FAE70449F8E72C00002000000343B6
:103E20000000834233330342333383410C49C97A60
:103E3000072913D2DFE801F01204060A0C0E100065
:103E4000BC2100E062210180002070472A21FAE7AE
:103E50001421F8E70A21F6E70521F4E70021F2E74B
:103E60002C000020054991F8242012B14FF0FF30BA
:103E70007047C98901800020704700002C00002095
:103E80002DE9FC414C4C80208DF8000020686B46E9
:103E90000122817C60680078FDF744FF4FF0FF3716
:103EA000002832D16420FCF7DBFC00258DF800509F
:103EB00020686B460122817C60680078FDF732FF44
:103EC000002871D120686B460622817D60680078E9
:103ED000FDF7F2FE002867D19DF805009DF803105C
:103EE000C007400F01F0010140EA41019DF80100C7
:103EF0004FF0010600F00100014309D0012905D06F
:103F0000022915D02DA0FEF795FC4DE0E67410E0D7
:103F100020686B460122C17860680078FDF7CCFE0E
:103F200048BB9DF8000010F00F0021D0042823D0DA
:103F3000E574FF20A07204F8080F4FF6FF7160705F
:103F4000E070E1802072A0722671A6761A48E576AC
:103F500065732038257340F8365F456085602577A6
:103F60006577E5834FF4FA6000F026FB18B907E0A7
:103F70001C48FEF75FFC17E01BA0FEF75BFCC5E7E3
:103F8000022000F03BFA78B92A2000F07DFB58B9F6
:103F9000322000F0AFFB38B90020FFF79BFD18B9C5
:103FA000002000F05FFA10B13846BDE8FC81002027
:103FB00000F0E0FB0020F8E72C000020556E737540
:103FC00070706F7274656420736F66747761726568
:103FD0002070726F64756374207265762025642E7C
:103FE0000A000000145E000848616C662073656E6C
:103FF0007369746976697479207061727420666F70
:10400000756E642E0A0000002DE9FF4FDFF89480E2
:10401000064685B098F8250015460F464FF0FF3943
:10402000B0BBAFB3002420E0301B102800DD10200F
:1040300080B283463A1901469246204600F0F6FBCC
:1040400030BB6A465946204600F08AF800BB50460D
:104050005A466946FCF7B9F820B16FF0010009B083
:10406000BDE8F08F04EB0B0084B2B442DCD3280A25
:104070008DF810008DF81150D8F80000444604ABBC
:10408000817ED8F8040002220078FDF74BFE08B1CB
:104090004846E4E7012084F825000898E0840020E1
:1040A000DDE700002C0000202DE9F84305464FF025
:1040B000FF39282844D80727284C00267DB1012045
:1040C00000F0B0FA20208DF800004FF00108012D1B
:1040D00017D0052D18D88DF8018005201FE000208D
:1040E00000F0A0FA8DF800608DF8017020686B4632
:1040F0000222817C60680078FDF714FE00BB267503
:1041000029E08DF80160E8E7142D04D802208DF82D
:1041100001000A2003E003208DF80100142000F0C4
:10412000B3FA9DF801006B4607EB80108DF8010093
:1041300020680222817C60680078FDF7F3FD10B1F1
:104140004846BDE8F8830820A072267384F81480DE
:104150000020FFF7BFFC0020F3E700002C00002048
:10416000F8B516000D464FF0FF371FD0104CA17A5E
:10417000E1B1010A8DF80010C0B28DF801004119BB
:1041800060684289914211D8216800786B46097EA7
:104190000222FDF7C7FD48B92068EAB23346417DE7
:1041A00060680078FDF788FD002800D03846F8BD2B
:1041B0002C000020F8B5544C4FF0FF36A07A0028B0
:1041C0007DD000258DF8005020686B460122C17B10
:1041D00060680078FDF7A6FD002870D120686B4666
:1041E0000122417960680078FDF79CFD002866D1C6
:1041F00020686B460122017960680078FDF792FD26
:1042000000287FD194F82400E0B30C208DF8000042
:1042100020686B460122017960680078FDF782FD15
:1042200000286FD13220FCF71BFBC0208DF8000066
:10423000A07AC00702D0E0208DF8000020686B460D
:104240000122017960680078FDF76CFD002859D1E2
:10425000607C18B102208DF8000001E08DF800505C
:1042600020686B460122C17B60680078FDF75AFD2B
:1042700028BB8DF8005020686B46012241796068A8
:1042800000783BE0FFE704208DF8000020686B46D3
:104290000122017960680078FDF744FD78B9A07CBF
:1042A00090B9A07AC0070FD05FF060008DF80000D1
:1042B00020686B46012201796068007800E021E007
:1042C000FDF730FDF0B901E04020EFE7607C18B168
:1042D00001208DF8000001E08DF8005020686B4649
:1042E0000122C17B60680078FDF71CFD50B9206891
:1042F000054B01224179606810330078FDF712FD0B
:10430000002800D03046F8BD2C0000202DE9F047F1
:10431000394C82468AB094F824000F4620B1002020
:1043200000F00EF9012600E0002607A8FFF744FD83
:1043300006A8FFF701FD09A8FFF778FD08A8FFF719
:1043400091FD94F80A9094F81080002500223946D7
:104350005046FFF76BF910B16D1C022DF6DB022DF4
:104360001AD00025012203A96846FFF75FF910B1B2
:104370006D1C022DF6DB022D0ED003A93846FEF788
:10438000BBFCC7B269465046FFF7DAFA10F0FF0FE0
:104390004FF0000502D002E0002503E001250FB92F
:1043A00045F00205FF2020726072E0724FF6FF7147
:1043B000E181A072207401202073BDF81C0000F080
:1043C000FBF89DF8180000F019F8BDF8240000F083
:1043D0005BF9BDF8200000F08DF9484600F0CAF9FD
:1043E0004046FFF777FB16B1012000F0A9F80AB0AC
:1043F0002846BDE8F08700002C00002038B5184C96
:104400004FF0FF35A17A19B3022806D0042806D050
:1044100008280ED010281BD10DE0002000E0082055
:104420008DF80000607A9DF80010B0EBD10F04D039
:1044300005E01020F4E71820F2E7002038BD2068DE
:104440006B460122C17960680078FDF76BFC08B10A
:10445000284638BD9DF80000C0086072EDE70000F6
:104460002C000020F8B5354C0546A07CA84201D1AF
:104470000020F8BD31484FF0FF366B46D0E9001000
:104480004FF001020979007835B3FDF715FC70BBD8
:104490009DF800006B4620F020008DF80000206899
:1044A0000122017960680078FDF73CFCF8B903202F
:1044B000FCF7D6F902208DF8000094F8220078B3BA
:1044C00082202BE020686B460122017D6068007825
:1044D000FDF728FC58B92EE0FDF7EEFB38B9A07ABD
:1044E000C0079DF8000003D040F0200002E00CE07F
:1044F00020F020008DF8000020686B460122017931
:1045000060680078FDF70EFC08B13046F8BD032066
:10451000FCF7A6F994F8220000B180208DF8000085
:1045200094F823000028CDD09DF8000040F0300022
:104530008DF80000C6E7A5749AE700002C00002063
:1045400038B51C4C94F8241081421DD0002500B3CE
:1045500094F82500D0B1002000F0ECF90020FFF71E
:1045600081FFE08C00F0C6F88DF8005060686B4663
:10457000012200782321FDF7D5FB012084F82400D7
:1045800000F0D8F9FFF716FE002038BD4FF0FF30DD
:1045900038BD002000F0CEF9207C8DF80000606866
:1045A0006B46012200782321FDF7BCFB84F82450E0
:1045B000E8E700002C00002038B5194C4FF0FF351B
:1045C000A17A31B3FA2809D0B0F5FA7F08D0B0F556
:1045D0007A7F0FD0B0F5FA6F1BD10DE0002000E01C
:1045E00008208DF80000207A9DF80010B0EBD10F64
:1045F00004D005E01020F4E71820F2E7002038BDD1
:1046000020686B460122817960680078FDF78AFB9B
:1046100008B1284638BD9DF80000C0082072EDE7BB
:104620002C00002038B5174C054694F82300A8420A
:1046300001D1002038BD0DB1302000E000208DF800
:104640000000A07C28B19DF8000040F002008DF829
:10465000000094F8220028B19DF8000040F080008E
:104660008DF8000020686B460122017D60680078AB
:10467000FDF758FB10B14FF0FF3038BD84F82350E0
:10468000D7E700002C00002038B5194C4FF0FF355B
:10469000A17A31B3BC2801D3012010E0622801D3F4
:1046A00002200CE02A2801D3032008E0142801D3BB
:1046B000042004E00A2801D3052000E006208DF83C
:1046C0000000E07A9DF80010884201D1002038BD3A
:1046D00020686B460122817860680078FDF722FB34
:1046E00008B1284638BD9DF80000E072EEE70000F2
:1046F0002C000020F8B51E4D04464FF0FF37A87A75
:1047000048B395F8240030BB287D4FF47A7648B141
:1047100064B1282C03D8E0B2FFF7C6FC26E00020E5
:10472000FFF7C2FC042C05D2042406E00020FFF7AA
:10473000BBFCF9E7B44200D93446B6FBF4F0401EA6
:104740008DF8000028686B4601224178686800787F
:10475000FDF7E8FA08B13846F8BD9DF80000401CA6
:10476000B6FBF0F0E8814008FFF78EFF0020F8BDAF
:104770002C000020F8B5054610F0700F4FF0000631
:1047800001D0012004E015B18DF8006002E0402066
:104790008DF80000244C6B4601222068817C606803
:1047A0000078FDF7BFFA4FF0FF3760BB9DF80000BF
:1047B00020F0400020738DF80060680602D40420C9
:1047C0008DF80000A80605D49DF8000040F0020016
:1047D0008DF80000E80605D49DF8000040F00100C7
:1047E0008DF80000280705D49DF8000040F038003F
:1047F0008DF8000020686B460122C17C606800785B
:10480000FDF790FA10B1A6723846F8BD25B1082D13
:1048100002D00020FFF706FFA57226753220FCF7B4
:104820001FF80020F8BD00002C000020F8B516008D
:104830000D464FF0FF371FD0104CA17AE1B1010AAD
:104840008DF80010C0B28DF80100411960684289EE
:10485000914211D8216800786B46097E0222FDF74B
:1048600061FA48B92068EAB23346417D6068007851
:10487000FDF758FA002800D03846F8BD2C0000207B
:104880000246012000E05043491EC9B2FBD27047E6
:1048900010B588B0694604A8FFF738FD072835D160
:1048A00007A8FFF7A3FA0498FBF770FD07990C46D9
:1048B000FBF7F0FCFBF778FD04900598FBF766FD2D
:1048C0002146FBF7E7FCFBF76FFD05900698FBF729
:1048D0005DFD2146FBF7DEFCFBF766FD069004A8B4
:1048E000FEF738FC03A8FFF745FABDF80C00009965
:1048F0004143009101994143019102994143684626
:104900000291FEF789FB02A0FDF794FF08B010BDED
:1049100073657474696E672062696173207375636F
:1049200063657366756C6C79202E2E2E2E2E2E0DDF
:104930000A000000F8B5144C0146224694F82460A1
:10494000D2E9000200235D1E56B179B1022111E0C7
:10495000C17B10786B460122FDF7E4F968B90EE0DF
:10496000A67A56B111B1617C61B902E08DF80030D0
:10497000EEE701218DF80010EAE72846F8BD9DF822
:10498000000060740020F8BD2C0000200000000032
:1049900000000000002F00000000070007000014C6
:1049A0007F147F1400242A7F2A12006264081323D4
:1049B00000364955225000000503000000001C226B
:1049C0004100000041221C000014083E08140008A9
:1049D000083E0808000000A0600000080808080859
:1049E000000060600000002010080402003E5149F1
:1049F000453E0000427F400000426151494600218F
:104A000041454B31001814127F10002745454539A8
:104A1000003C4A4949300001710905030036494903
:104A2000493600064949291E0000363600000000BC
:104A30005636000000081422410000141414141407
:104A400000004122140800020151090600324959B0
:104A5000513E007C1211127C007F49494936003ECC
:104A600041414122007F4141221C007F4949494187
:104A7000007F09090901003E4149497A007F080881
:104A8000087F0000417F4100002040413F01007F3E
:104A900008142241007F40404040007F020C027F0A
:104AA000007F0408107F003E4141413E007F09091C
:104AB0000906003E4151215E007F09192946004642
:104AC000494949310001017F0101003F4040403F19
:104AD000001F2040201F003F4038403F0063140863
:104AE000146300070870080700615149454300003E
:104AF0007F41410000552A552A55000041417F0061
:104B00000004020102040040404040400000010255
:104B10000400002054545478007F4844443800383E
:104B20004444442000384444487F003854545418C6
:104B300000087E0901020018A4A4A47C007F0804D8
:104B400004780000447D4000004080847D00007FA8
:104B5000102844000000417F4000007C04180478C5
:104B6000007C0804047800384444443800FC2424C1
:104B700024180018242418FC007C080404080048A9
:104B80005454542000043F444020003C4040207CCA
:104B9000001C2040201C003C4030403C00442810B9
:104BA0002844001CA0A0A07C004464544C4414146D
:104BB00014141414000000000000000000000000A5
:104BC00000000000000000F80000000000000033BA
:104BD0003000000000100C06100C06000000000061
:104BE0000000000040C07840C0784000043F04044A
:104BF0003F040400007088FC08300000001820FF0B
:104C0000211E0000F008F000E018000000211C0345
:104C10001E211E0000F00888700000001E212324C1
:104C20001927211010160E000000000000000000DF
:104C300000000000000000E018040200000000076F
:104C40001820400000020418E00000000040201876
:104C500007000000404080F0804040000202010F49
:104C600001020200000000F0000000000101011F2D
:104C700001010100000000000000000080B0700091
:104C80000000000000000000000000000001010121
:104C900001010101000000000000000000303000B0
:104CA000000000000000000080601804006018068A
:104CB0000100000000E010080810E000000F1020C4
:104CC00020100F00001010F8000000000020203F0E
:104CD0002020000000700808088870000030282498
:104CE0002221300000300888884830000018202039
:104CF00020110E000000C02010F80000000704245E
:104D0000243F240000F808888808080000192120A2
:104D100020110E0000E0108888180000000F1120FC
:104D200020110E0000380808C83808000000003FB5
:104D3000000000000070880808887000001C222114
:104D400021221C0000E010080810E00000003122C1
:104D500022110F00000000C0C00000000000003061
:104D600030000000000000800000000000008060B3
:104D70000000000000008040201008000001020434
:104D8000081020004040404040404000040404041B
:104D900004040400000810204080000000201008D7
:104DA00004020100007048080808F000000000300C
:104DB00036010000C030C828E810E000071827249A
:104DC00023140B000000C038E0000000203C230248
:104DD0000227382008F8888888700000203F2020AB
:104DE00020110E00C03008080808380007182020DD
:104DF0002010080008F808080810E000203F2020D4
:104E000020100F0008F88888E8081000203F2020B4
:104E10002320180008F88888E8081000203F2000A8
:104E200003000000C03008080838000007182020E0
:104E3000221E020008F808000008F808203F21019F
:104E400001213F20000808F8080800000020203F4A
:104E50002020000000000808F8080800C0808080BA
:104E60007F00000008F888C028180800203F2001B3
:104E70002638200008F8080000000000203F20200D
:104E80002020300008F8F800F8F80800203F003F24
:104E9000003F200008F830C00008F808203F20003C
:104EA00007183F00E01008080810E0000F1020204D
:104EB00020100F0008F808080808F000203F210122
:104EC00001010000E01008080810E0000F18242479
:104ED00038504F0008F8888888887000203F2000EC
:104EE000030C3020007088080808380000382021A2
:104EF00021221C00180808F8080818000000203FAC
:104F00002000000008F808000008F808001F202012
:104F100020201F000878880000C8380800000738E3
:104F20000E010000F80800F80008F800033C070034
:104F3000073C0300081868808068180820302C039C
:104F4000032C30200838C800C83808000000203F73
:104F50002000000010080808C83808002038262162
:104F600020201800000000FE020202000000007F66
:104F700040404000000C30C0000000000000000174
:104F80000638C00000020202FE000000004040405F
:104F90007F00000000000402020204000000000084
:104FA0000000000000000000000000008080808001
:104FB00080808080000202040000000000000000E9
:104FC0000000000000008080808000000019242282
:104FD00022223F2008F8008080000000003F1120BE
:104FE00020110E000000008080800000000E1120C3
:104FF00020201100000000808088F800000E1120A1
:1050000020103F200000808080800000001F2222AE
:1050100022221300008080F0888888180020203F1A
:10502000202000000000808080808000006B94942D
:105030009493600008F8008080800000203F2100E9
:1050400000203F2000809898000000000020203FB2
:1050500020200000000000809898000000C08080A0
:10506000807F000008F8000080808000203F24023C
:105070002D302000000808F8000000000020203F2C
:10508000202000008080808080808000203F2000E1
:105090003F20003F8080008080800000203F210072
:1050A00000203F200000808080800000001F202022
:1050B00020201F00808000808000000080FFA12051
:1050C00020110E000000008080808000000E112062
:1050D00020A0FF80808080008080800020203F21F1
:1050E00020000100000080808080800000332424A4
:1050F00024241900008080E0808000000000001F50
:10510000202000008080000000808000001F202000
:1051100020103F20808080000080808000010E30C1
:105120000806010080800080008080800F300C0322
:105130000C300F0000808000808080000020312E25
:105140000E312000808080000080808080818E7001
:105150001806010000808080808080000021302CB3
:105160002221300000000000807C020200000000CC
:10517000003F404000000000FF0000000000000071
:10518000FF0000000002027C800000000040403F61
:1051900000000000000601010202040400000000FB
:1051A0000000000075191A0C6A231B1C1F20727462
:1051B000433B4138393A6B6C376F06246D6E700093
:1051C0006800000476005401F7FD00018300000030
:1051D0000008000000010018320005000000204116
:1051E0000000D242295C0F3E9A99993E3333733FB7
:1051F000295C0F3E00007000000000240000000247
:105200000003000000650054FFEF0000FA80000B6F
:1052100012820001030C30C30E8C8CE914D54002BD
:1052200013710F8E3883F8833000F883258EF8834E
:105230003000F883FFFFFFFF0FFEA9D62400040013
:105240001A8279A10000003CFFFF0000001000005E
:1052500038836FA2003E03304000000002CAE30919
:105260003E80000020000000000000004000000020
:1052700060000000000C0000000C186E0000069298
:105280000A16C0DFFFFF0256FD8CD377FFE1C496FC
:10529000E0C5BEAA00000000FFFF0B2B0000165760
:1052A000000003594000000000001DFA00026C1DC0
:1052B000000000003FFFDFEB003EB3B6000D227898
:1052C00000002F3C00000000001942B5000039A288
:1052D0000000B365D90E9FC91DCF4C3430000000CB
:1052E000500000003BB67AE80064000000C80000EF
:1052F00000000000100000001000FA921000225E72
:10530000000D229F0001000000320000FF46000057
:1053100063D400001000000004D6000004CC00009C
:1053200004CC0000000010720000004000000000EB
:105330000000000000060002000500070000000059
:10534000006400000000000000000005000500648B
:1053500000200000000000000000000000004000ED
:105360000000030000000032F8980000FF65000014
:10537000830F0000FF9BFC00000000000000000005
:10538000000000000000000000000000000000001D
:10539000000000000000000000000000000000000D
:1053A0000000100040000000000000060000B26A8B
:1053B000000200000001FB830068000000D9FC002F
:1053C0007CF1FF830000000000650000006403E83A
:1053D00000640028000000250000000016A0000066
:1053E0000000100000001000002F0000000001F479
:1053F0000000100000280000FFFF4581FFFFFA7247
:105400000000000000000000004400050005BAC6CE
:10541000004778A200000001000000000000060024
:10542000000000140000254D002F706D000005AE37
:10543000000C02D00000000000000000000000008E
:1054400000000000001B0000000000000000000041
:1054500000000000006400000008000000000000E0
:10546000000000000000000000000000000000003C
:10547000000000000000000000000000000000002C
:10548000000000000000000000000000000000001C
:10549000000000000000000000000000000000000C
:1054A00000000000000000000000000000000000FC
:1054B00000000000001B00000000000000000000D1
:1054C000000E000E00000AC70004000000000032B9
:1054D000FFFFFF9C00000B2B0000000200000001FA
:1054E00000000064FFE50000000000000000000074
:1054F00000000000000000010000000000010000AA
:105500000000000000018000000180000001800018
:10551000002426D300000000000000000006001058
:105520000096003C000000000000000000000000A9
:10553000000000000C0A4E68CDCF7709501667595D
:10554000C619CE820000000000000000000000002C
:1055500000000000000000000000000017D78400D9
:10556000030000000000000000000000C7938F9DB2
:105570001E1B1C19000000000000000000000000BD
:105580000000000000000000000000000203188579
:1055900000004000000000030000000300000000C5
:1055A00000000000400000000000000000000000BB
:1055B00000000000000000000000000000000000EB
:1055C00000000000000000000000000000000000DB
:1055D0000000000000000000677DDF7E72902E5505
:1055E0004CF6E6880000000000000000000000000B
:1055F00000000000D8DCB4B8B0D8B9ABF3F8FAB307
:10560000B7BB8E9EAEF132F51BF1B4B8B08097F106
:10561000A9DFDFDFAADFDFDFF2AAC5CDC7A90CC98A
:105620002C97F1A989264666B28999A92D557DB096
:10563000B08AA896365676F1BAA3B4B280C0B8A89C
:105640009711B28398BAA3F0240844106418B2B931
:10565000B49883F1A329557DBAB5B1A38393F00023
:105660002850F5B2B6AA839328547CF1B9A382934B
:1056700061BAA2DADEDFDB819AB9AEF5606870F15B
:10568000DABAA2DFD9BAA2FAB9A38292DB31BAA2FE
:10569000D9BAA2F8DF85A4D0C1BBAD83C2C5C7B853
:1056A000A2DFDFDFBAA0DFDFDFD8D8F1B8AAB38D81
:1056B000B4980D355DB2B6BAAF8C96198F9FA70E10
:1056C000161EB49AB8AA872C547CBAA4B08AB69194
:1056D000325676B28494A4C808CDD8B8B4B0F19943
:1056E00082A82D557D98A80E161EA22C547C92A43B
:1056F000F02C5078F184A898C4CDFCD80DDBA8FC20
:105700002DF3D9BAA6F8DABAA6DED8BAB2B686961A
:10571000A6D0F3C841DAA6C8F8D8B0B4B882A89227
:10572000F52C548898F135D9F418D8F1A2D0F8F9AD
:10573000A884D9C7DFF8F883C5DADF69DF83C1D869
:10574000F40114F1A8824EA884F311D182F5D99204
:10575000289788F109F41C1CD884A8F3C0F9D1D982
:105760009782F129F40DD8F3F9F9D1D982F4C20363
:10577000D8DEDF1AD8F1A2FAF9A88498D9C7DFF8E1
:10578000F8F883C7DADF69DFF883C3D8F40114F1CE
:1057900098A8822EA884F311D182F5D992509788C7
:1057A000F109F41CD884A8F3C0F8F9D1D99782F193
:1057B00049F40DD8F3F9F9D1D982F4C403D8DEDF66
:1057C000D8F1AD8898CCA809F9D98292A8F57CF1D6
:1057D000883ACF944A6E98DB6931DAADF2DEF9D8B7
:1057E0008795A8F221D1DAA5F9F417D9F1AE8ED0B8
:1057F000C0C3AE82C684C3A88595C8A588F2C0F18F
:10580000F4010EF18E9EA8C63E56F554F18872F44E
:105810000115F19845856EF58E9E0488F142985ADF
:105820008E9E068869F4011CF1981E1108D0F504BB
:10583000F11E970202983625DBF9D985A5F3C1DA66
:1058400085A5F3DFD88595A8F309DAA5FAD8829261
:10585000A8F578F1881A849F26889821DAF41DF338
:10586000D8879F39D1AFD9DFDFFBF9F40CF3D8FA31
:10587000D0F8DAF9F9D0DFD9F9D8F40BD8F3879F4B
:1058800039D1AFD9DFDFF41DF3D8FAFCA869F9F9F3
:10589000AFD0DADEFAD9F88F9FA8F1CCF398DB45C8
:1058A000D9AFDFD0F8D8F18F9FA8CAF38809DAAF53
:1058B0008FCBF8D8F2AD978D0CD9A5DFF9BAA6F346
:1058C000FAF412F2D8950DD1D9BAA6F3FADAA5F204
:1058D000C1BAA6F3DFD8F1BAB2B68696A6D0CAF39B
:1058E00049DAA6CBF8D8B0B4B8D8AD84F2C0DFF1AD
:1058F0008FCBC3A8B2B68696C8C1CBC3F3B0B48869
:1059000098A821DB718D9D71859521D9ADF2FAD8CA
:105910008597A828D9F408D8F28D29DAF405D9F2A8
:1059200085A4C2F2D8A88D9401D1D9F411F2D887F8
:1059300021D8F40AD8F28498A8C801D1D9F411D892
:10594000F3A4C8BBAFD0F2DEF8F8F8F8F8F8F8F82E
:10595000D8F1B8F6B5B9B08A95A3DE3CA3D9F8D88A
:105960005CA3D9F8D87CA3D9F8D8F8F9D1A5D9DFA8
:10597000DAFAD8B18530F7D9DED8F830ADDADED82A
:10598000F2B48C99A32D557DA083DFDFDFB591A004
:10599000F629D9FBD8A0FC29D9FAD8A0D051D9F83A
:1059A000D8FC51D9F9D879D9FBD8A0D0FC79D9FA4B
:1059B000D8A1F9F9F9F9F9A0DADFDFDFD8A1F8F811
:1059C000F8F8F8ACDEF8ADDE8393AC2C547CF1A88B
:1059D000DFDFDFF69D2CDAA0DFD9FADB2DF8D8A8BF
:1059E00050DAA0D0DED9D0F8F8F8DB55F8D8A8788E
:1059F000DAA0D0DFD9D0FAF8F8F8F8DB7DF8D89C37
:105A0000A88CF530DB38D9D0DEDFA0D0DEDFD8A817
:105A100048DB58D9DFD0DEA0DFD0DED8A868DB7045
:105A2000D9DFDFA0DFDFD8F1A888902C547C98A8BC
:105A3000D05C38D1DAF2AE8CDFF9D8B087A8C1C11A
:105A4000B188A8C6F9F9DA36D8A8F9DA36D8A8F9AB
:105A5000DA36D8A8F9DA36D8A8F9DA36D8F78D9D2B
:105A6000ADF818DAF2AEDFD8F7ADFA30D9A4DEF926
:105A7000D8F2AEDEFAF983A7D9C3C5C7F1889BA7D0
:105A80007AADF7DEDFA4F8849408A797F300AEF2AE
:105A90009819A488C6A39488F632DFF28393DB09B1
:105AA000D9F2AADFD8D8AEF8F9D1DAF3A4DEA7F19B
:105AB000889B7AD8F38494AE19F9DAAAF1DFD8A8D2
:105AC00081C0C3C5C7A39283F628ADDED9F8D8A399
:105AD00050ADD9F8D8A378ADD9F8D8F8F9D1A1DA72
