:020000040800F2
:10000000A008002001010008B7290008B922000853
:10001000B52900085B0A00085D36000800000000F2
:10002000000000000000000000000000892F000810
:100030009F0A000800000000C12D0008DD2F000805
:100040001B0100081B0100081B0100081B01000820
:100050001B0100081B0100081B0100081B01000810
:100060001B0100081B0100081B0100081B01000800
:100070001B0100081B0100085D0A0008690A00084E
:100080001B0100081B0100081B0100081B010008E0
:100090001B0100081B0100081B010008A10A000841
:1000A0001B0100081B0100081B0100081B010008C0
:1000B0001B010008413000084D3000081B010008FA
:1000C0001B0100081B0100081B0100081B010008A0
:1000D0001B0100082D3600081B0100081B01000849
:1000E0001B0100081B0100081B010008DFF80CD0F1
:1000F00000F050FC0048004729510008A0080020EB
:100100000648804706480047FEE7FEE7FEE7FEE7B1
:10011000FEE7FEE7FEE7FEE7FEE7FEE73F3000080A
:10012000ED0000082DE9F0410024061B254671F181
:10013000000605DA01240027D0EB070067EB010178
:10014000161E73F1000605DA0027D2EB070201251F
:1001500067EB030300F020FB86460E4617469C46DD
:10016000AC4204D00025D0EB050E65EB010624B1AE
:100170000020D2EB000760EB030C704631463A4694
:100180006346BDE8F081202A04DB203A21FA02F020
:100190000021704721FA02F3D040C2F120029140C1
:1001A000084319467047D2B201E000F8012B491EFE
:1001B000FBD270470022F6E710B513460A46044604
:1001C0001946FFF7F0FF204610BD30B50446002069
:1001D000034600E05B1C934203D2E05CCD5C401B15
:1001E000F8D030BDF0B480EA0102D40F4200B2EB87
:1001F000410F02D20246084611464A0042D0C30DC2
:10020000DDB2C1F3C752AD1A202D35DAC1F31601A4
:1002100041F4000204B15242C5F1200602FA06F18F
:100220002A411044B3EBD05F23D0C4B1012DA0EB21
:10023000C35009DCF0BC4FF0004202EAC352DBB20B
:1002400000F5000000F003BB400000F1807000EBFF
:10025000C350A0F1807040EAD170490009E049081C
:1002600041EAC071A0EBC35000F50000400800EB6C
:10027000C350F0BC00F0E2BA6142012202EB41013E
:10028000001BF6E7F0BC704781F00041AAE780F060
:100290000040A7E780EA010210B502F000434000E9
:1002A00022D04A001FD0010E01EB1261C0F35600AC
:1002B000C2F3560240F4000042F40002A0FB022008
:1002C00000047F39140400D0401C50EA124001D4CD
:1002D0004000491EC2B20C0604EBD010401C40087E
:1002E000802A02D003E0002010BD20F00100002988
:1002F00000DA0020184310BD30B480EA010202F099
:10030000004530F0004221F0004013D090B1C30D01
:10031000D40DC2F31601C0F31600E41A41F4000133
:1003200040F400027D34914201D3641C00E0490096
:10033000002C02DA30BC002070474FF4000000238C
:10034000914201D3891A034340084FEA4101F7D192
:1003500051B1914202D14FF0004105E002D24FF07D
:10036000010101E06FF0010103EBC450284430BCEF
:1003700000F064BA420005D0C0F3C7525242914225
:1003800001DC0020704700EBC15070472DE9FE4FA3
:10039000804681EA0300C00F0C46009021F0004126
:1003A00023F00045B8EB0200A94105D240462146A2
:1003B00090461C460B46024623F00040104347D0AF
:1003C000270DC7F30A00C3F30A510290401A0190A7
:1003D00040286BDAC3F3130040F4801B0098924668
:1003E00020B10023D2EB030A63EB0B0B01985946B3
:1003F000C0F14002504600F000FA06460D46504655
:100400005946019A00F008FA10EB080061410024F7
:1004100087EA115284EAE7731A4340D0009A62B324
:10042000019A012A4FEA075215DC001B61EB020119
:100430004FF0004202EA0752CDE90042001C41F5AC
:10044000801132462B4600F03FFA03B0BDE8F08F32
:1004500040462146F9E7001B61EB0201001C41F513
:10046000801300185B412018A2F5001747EB030129
:1004700040EAD570B6196D4111E06D084FEA3606B5
:1004800045EAC0754FEA0752001B61EB0201001CF0
:1004900041F5801149084FEA3000001951413246B8
:1004A0002B4603B0BDE8F04F00F0FFB900980122E1
:1004B00040000023D0EB020263EBE073009821467A
:1004C0004FEAE074B8EB000061EB0401E9E783F068
:1004D00000435BE781F0004158E72DE9FE4F81EAD8
:1004E000030404F0004421F0004100944FF0000B9D
:1004F00023F0004350EA01045ED052EA03045BD0CB
:10050000C3F30A54C1F30A552C44A4F2F334019402
:10051000A0FB0254C1F3130141F48011C3F3130390
:1005200043F4801301FB024400FB034E840A970A44
:1005300044EA815447EA8357A4FB076802958D0A71
:1005400005FB07854FEA932C04FB0C542705029DFD
:100550004FEA065847EA1637B5EB08056EEB070C6D
:10056000870E920E47EA811742EA8312A7FB020127
:10057000B6EB0B0164EB00042B0D43EA0C335E1861
:1005800044EB1C50DA465146E7FB0201C5F3130465
:100590004FEA0B3343EA14534FEA0432019C43EA17
:1005A0000603A4F10C040294009CCDE900B400F011
:1005B0008BF903B0BDE8F08F00200146F9E72DE983
:1005C000F04D81EA030404F0004B21F0004514468D
:1005D0004FF0000A23F0004150EA050220D054EA0F
:1005E00001021DD0C5F30A570246C5F31303C1F338
:1005F0001300C1F30A5640F4801543F48013A7EBAF
:100600000608101BD64608F2FD3873EB050002D32E
:1006100008F1010801E092185B41B8F1000F03DA1C
:1006200000200146BDE8F08D00204FF48011064601
:1006300084460EE0171B73EB050705D3121B63EB13
:10064000050306434CEA010C49084FEA30009218B2
:100650005B4150EA0107EDD152EA030012D082EA71
:10066000040083EA0501084305D0101BAB4106D204
:100670000122002306E000224FF0004302E06FF069
:10068000010253101AEB06004CEB085110EB0A0064
:1006900041EB0B01BDE8F04D00F007B9C10F80EA56
:1006A000E0700844CA079623002100F0D0B89623D2
:1006B0000022114600F0CBB83EB5CA17CB0F00247C
:1006C00050405140C0186141DA0740F23343009472
:1006D000CDE901232246234600F0F6F803B030BDF1
:1006E00000F0004220F00040C10DC0F3160040F4BD
:1006F00000007F2901DA00207047962903DCC1F150
:100700009601C84001E096398840002AF4D0404262
:10071000704720F00040C10DC0F3160040F4000007
:100720007F2901DA00207047962903DCC1F1960188
:10073000C840704796398840704700F0004230F05A
:1007400000400AD0C10D01F56071C0F3160042EA05
:100750000151C2084007114370470020014670470D
:1007600001F0004330B421F0004150EA010206D00C
:100770000A0DA2F56072C1F31301002A02DC30BC3D
:1007800000207047440F44EAC104C100E01830BCA7
:1007900000EBC25000F052B82DE9F05F0546002092
:1007A00092469B4688460646814640241BE02846E2
:1007B000414647462246FFF7E6FC53465A46C01AD2
:1007C000914110D311461846224600F016F82D1A12
:1007D00067EB01084F4622460120002100F00DF88A
:1007E00017EB00094E41201EA4F10104DFDC48464E
:1007F00031462A464346BDE8F09F202A04DB203AD2
:1008000000FA02F1002070479140C2F1200320FA63
:1008100003F3194390407047202A06DBCB17203A98
:1008200041FA02F043EAE07306E041FA02F3D040F5
:10083000C2F1200291400843194670470029A8BF21
:100840007047401C490008BF20F00100704710B4F9
:10085000B0FA80FC00FA0CF050EA010404BF10BCAE
:10086000704749B1CCF1200421FA04F411FA0CF1DB
:1008700018BF012121430843A3EB0C01CB1D4FEA14
:1008800000614FEA102042BF002010BC704700EB0F
:10089000C35010440029A4BF10BC7047401C49003D
:1008A00008BF20F0010010BC704710B5141E73F192
:1008B000000408DA401C41F1000192185B411A4320
:1008C00001D120F0010010BD2DE9F04D92469B466C
:1008D00011B1B1FA81F202E0B0FA80F22032904612
:1008E000FFF78BFF04460F4640EA0A0041EA0B017E
:1008F00053465A46084313D0114653EA010019D013
:10090000C8F140025046FFF73EFC05460E465046F1
:1009100059464246FFF771FF084305D0012004E025
:1009200020463946BDE8F08D0020054346EAE076D2
:100930002C4337430A986305E40AA0EB0800002221
:10094000FD0A44EA47540A3002D500200146E9E78F
:10095000010510196941DDE9084500196941BDE843
:10096000F04DA2E770B521F0004303430CD0C1F372
:100970000A550024D5EB040564EB0403D617AD1A21
:10098000B34102DB0020014670BD201841EB02514B
:1009900070BD0000064C074D06E0E06840F0010322
:1009A00094E8070098471034AC42F6D3FFF7A2FB57
:1009B00010770008307700082DE9F04D00231A4623
:1009C0001B1A8A4103DB00200146BDE8F08DC1F30C
:1009D0000A52C1F3130141F480154FF0000BD10707
:1009E00002D100186D41521E0027044640F2FF114B
:1009F000384601EB620A3E468046024600204FF42C
:100A00008011FFF7C0FBC2197141BB1846EB010012
:100A1000B4EB030C75EB000C04D3E41A65EB000592
:100A200017460E46241908F101006D41804634280E
:100A3000E3DDF91946EB0600091BA84103D24FF08C
:100A4000FF32134601E0002213461BEB070046EB82
:100A50000A51BDE8F04DFFF728BFFEE7014800F05E
:100A6000E9B8000048020020014800F0E3B80000A7
:100A70000402002030B590F840500124AC40C56B12
:100A80006C60046863604368102B036803D099604E
:100A90000068C26030BD9A600068C16030BD7047B8
:100AA00070B51248016889061AD5202101604114E9
:100AB00000220F4800F0D0FA0E480F4C0168206861
:100AC00003F0FAFB0D490E4D0E4E086028603060B1
:100AD000206802F0FBFB28B10021084602F056FA1C
:100AE000002070BD31682868F8E700001404014058
:100AF00000100140300000202C0000209000002059
:100B0000100000201400002072B6FEE710B502F0BD
:100B100059F90A480A49006880F00040086009480D
:100B2000B0F90000FFF7BAFD074908600748B0F9BF
:100B30000400FFF7B3FD0649086010BD2000002047
:100B40002C0000204C00002030000020520000202B
:100B50003400002010B590F821100022022905D0A1
:100B60000421816380F82020012010BD01680B68FA
:100B700023F00E030B6001680B6823F001030B6088
:100B800090F84030C46B012101FA03F3636080F8F0
:100B9000211080F82020104610BD000010B590F8FC
:100BA00021100024022903D00421816301243DE0A7
:100BB00001680A6822F00E020A6001680A6822F0E1
:100BC00001020A601A4A0168914201D1012121E023
:100BD000174A1432914201D110211BE0144A2832E5
:100BE000914201D1891515E0114A3C32914201D15F
:100BF00089140FE00E4A5032914202D14FF48031F5
:100C000008E00B4A6432914202D14FF4801101E0B6
:100C10004FF08071064A083A5160012180F8211096
:100C2000002180F82010416B01B18847204610BD9B
:100C3000080002402DE9F05FC16B0C6801680B6889
:100C4000D0F840C0042202FA0CF2494DDFF824A18A
:100C5000494E4A4FDFF828B1DFF828E122422CD074
:100C60005A072AD50A68920603D40A6822F00402B9
:100C70000A600168A94201D1042219E0514501D15D
:100C8000402215E0B14202D14FF4806210E0B94237
:100C900002D14FF480420BE0594502D14FF480223B
:100CA00006E0714502D14FF4800201E04FF080620E
:100CB0002F4908394A60C16A3BE04FF0020808FA40
:100CC0000CF818EA040F4FF000094FF0010235D07C
:100CD0005FEA837832D50B689B0605D40B6823F056
:100CE0000A030B6080F821200168A94201D1022289
:100CF00019E0514501D1202215E0B14202D14FF453
:100D0000007210E0B94202D14FF400520BE0594595
:100D100002D14FF4003206E0714502D14FF40012C7
:100D200001E04FF00072124908394A6080F82090C3
:100D3000816A00291AD0BDE8F05F0847082505FA46
:100D40000CF5254212D01B0710D50B6823F00E03BB
:100D50000B6090F84010C36B02FA01F15960826396
:100D600080F8212080F82090016BE2E7BDE8F09F39
:100D7000080002401C0002403000024044000240D3
:100D8000580002406C00024030B528B308C813492F
:100D900014221944B1FBF2F18900C1631049816347
:100DA000022141771A6843F6F0718A43D0E90014B2
:100DB0002143D0E902452C4321430469214344697E
:100DC00021438469214311431960002141630122B9
:100DD00042770177084630BD012030BDF8FFFDBFE6
:100DE0000000024070B5044690F82000002501285C
:100DF0000CD0012084F8200094F821600020012EFE
:100E000006D084F820000225284670BD022070BD5F
:100E1000022684F82160A0632068066826F0010697
:100E200006602046FFF726FEE06A00282068016879
:100E300002D041F00E0106E021F0040101602068BB
:100E4000016841F00A0101602068016841F0010178
:100E50000160D9E770B5044600F004F90546601C4E
:100E600002D004480078044400F0FCF8401BA04283
:100E7000FAD370BD940000202DE9F84FDFF8B89147
:100E80000024A9F1040B23460F2709F1040AABF152
:100E9000040EC9E00125A5402A40AA427DD1674E33
:100EA000D1F804C0ACEB0608B44532D014DCBCF178
:100EB000030F3AD009DCBCF1000F2AD0BCF1010FBE
:100EC0001CD0BCF1020F31D11DE0BCF1110F17D0C5
:100ED000BCF1120F2AD119E0B8F5881F19D006DC31
:100EE000B8F5803F15D0B8F5801F1FD111E0B8F5D7
:100EF000001F0ED0B8F5041F18D10AE0CB6815E02A
:100F0000CB681B1D12E0CB6808330FE0CB680C33B5
:100F10000CE08B682BB1012B4FF0080303D0456127
:100F200004E0042302E0056100E00023FF2A01D869
:100F3000064601E000F104064FEA840501D9A5F157
:100F40002005D6F8008007FA05FC28EA0C0803FA09
:100F500005F548EA0508C6F800804D68ED0062D541
:100F6000374DAE6946F00106AE61AD6924F0030667
:100F700005F001050095334D06EB050CDCF8085033
:100F8000A607360F07FA06F825EA0805DFF8B88045
:100F9000404503D14FF0000817E044E0DFF8AC8093
:100FA000404502D14FF001080FE0DFF8A480404532
:100FB00002D14FF0020808E0DFF89880404502D1E6
:100FC0004FF0030801E04FF0040808FA06F848EA79
:100FD0000508CCF808804D68D9F80060ED024D4650
:100FE00001D5164300E096432E604D68DAF80060A4
:100FF000AD02554601D5164300E096432E604D687C
:10100000DBF80060AD035D4601D5164300E0964372
:101010002E604D68DEF80060ED03754601D516437D
:1010200000E096432E60641C0D682A46E5407FF47C
:1010300031AFBDE8F88F0000080401400000111036
:10104000001002400000014000080140000C014077
:1010500000100140001401400AB101617047090409
:10106000FBE7000001488068704700009400002002
:101070000248816802781144816070479400002022
:10108000074810B5016841F010010160032000F02D
:1010900075F80F2000F006F800F024F8002010BDCD
:1010A0000020024070B50D4D04464FF47A71287847
:1010B000B1FBF0F00A490968B1FBF0F000F0DCFA8E
:1010C00048B9102C07D200222146501E00F036F8F5
:1010D00000206C6070BD012070BD000094000020F5
:1010E000A00000200C4808B5816941F00101816130
:1010F000816901F001010091C16941F08051C16134
:10110000C06900F0805000900448416821F0E0611F
:1011100041F00071416008BD001002400000014034
:10112000002809DB00F01F020121914040098000E6
:1011300000F1E020C0F8001170470000F0B40E4B41
:101140001B680C46C3F30223C3F10705042D00D925
:101150000425191D072901D2002300E0DB1E01260A
:1011600006FA05F1491E214099409E40761E164020
:101170003143F0BC02F098BA0CED00E0064900F0F3
:10118000070208684FF6FF03184040EA0220034AAE
:1011900010430860704700000CED00E00000FA0505
:1011A0002DE9F0470F46050061D0434E306800F04E
:1011B0000700B84209D2306820F007003843306099
:1011C000306800F00700B84251D128683B4C8107D5
:1011D00012D5400703D5606840F4E060606028786D
:1011E000000703D5606840F4605060606068A968DB
:1011F00020F0F000084360602878C00728D06868B5
:10120000012810D02168022810D0890700292EDA81
:10121000616821F0030101436160FFF723FF80460D
:1012200041F288390DE021688903EFE78901EDE794
:10123000FFF718FFA0EB0801494502D90320BDE8DC
:10124000F0876068696800F00C00B0EB810FEFD1A7
:10125000306800F00700B8420BD9306820F0070072
:1012600038433060306800F00700B84201D00120F8
:10127000E5E72878400705D56068E96820F4E06074
:10128000084360602878000706D56068296920F463
:10129000605040EAC100606000F038F86168084AB8
:1012A000C1F30311515CC840064908600648006854
:1012B000FFF7F8FE0020C2E70020024000100240C5
:1012C000B8750008A00000209800002004480549D7
:1012D00000684968044AC1F30221515CC840704764
:1012E000A000002000100240C8750008044805490D
:1012F00000684968044AC1F3C221515CC840704784
:10130000A000002000100240C87500080E4A516875
:101310000E4801F00C03042B11D0082B0FD10C4800
:10132000C1F38343C903C05C0AD55168084AC1F3BD
:101330004041921E515C054A5043B0FBF1F07047AA
:1013400004494843704700000010024000127A0030
:10135000A875000800093D002DE9F84F040070D081
:101360002078C04DC00749D06868C0F381000128CB
:1013700007D06868C0F38100022809D16868C003FB
:1013800006D52868800339D560680028E7D035E0A5
:101390006068B0F5803F0BD010B1B0F5A02F11D030
:1013A000286820F480302860286820F4802002E03B
:1013B000286840F480302860606890B1FFF752FEE2
:1013C00006460AE0286840F480202860F0E700BF65
:1013D000FFF748FE801B642873D828688003F7D580
:1013E0000CE0FFF73FFE064605E000BFFFF73AFEC0
:1013F000801B6428F0D828688003F7D420789A4EA0
:1014000080074FF001094FF0000839D5686810F0E7
:101410000C0F07D06868C0F38100022809D1686802
:10142000C00306D42868800714D52069012808D194
:1014300010E02069B0B1C6F80090FFF713FE074630
:1014400005E00AE1FFF70EFEC01B0228C4D8286899
:101450008007F7D52868616920F0F80040EAC100EC
:1014600028600DE0C6F80080FFF7FCFD074604E0A9
:10147000FFF7F8FDC01B022823D828688007F7D49F
:10148000207800072CD57948A169D9B1C0F800901F
:10149000FFF7E8FD074604E0FFF7E4FDC01B022864
:1014A0000FD8686A8007F7D571484FF4FA51006881
:1014B000B0FBF1F0009000BF0098411E0091FAD2FD
:1014C0000EE080E0C0F80080FFF7CCFD074604E0A6
:1014D000FFF7C8FDC01B022875D8686A8007F7D4DB
:1014E0002078400760D5E8690027C00008D4E86983
:1014F00040F08050E861E869012700F080500090DA
:101500005C480168C90513D40168834641F48071C1
:101510000160FFF7A7FD824606E000BFFFF7A2FDCE
:10152000A0EB0A0064284ED8DBF80000C005F5D512
:10153000E06801280AD008B1052813D0286A20F0F5
:1015400001002862286A20F0040002E0286A40F0C6
:1015500001002862E06841F2883B98B1FFF782FD04
:1015600082460BE0286A40F004002862EEE700BFE4
:10157000FFF778FDA0EB0A0159455AD8286A800781
:10158000F6D50CE0FFF76EFD824605E0FFF76AFD39
:10159000A0EB0A0159454CD8286A8007F6D41FB140
:1015A000E86920F08050E861E06988B36968C1F3B8
:1015B0008101022944D00228C6F8608004D0FFF7D8
:1015C00051FD044638E034E0FFF74CFD074604E0E7
:1015D000FFF748FDC01B02282BD828688001F7D4EC
:1015E000206AB0F5803F05D16868A16820F400301A
:1015F00008436860D4E908010843696821F474115C
:1016000008436860C6F86090FFF72CFD044606E0CA
:1016100025E000BFFFF726FD001B022809D8286837
:101620008001F7D51BE000BFFFF71CFD001B02285F
:1016300002D90320BDE8F88F28688001F4D40EE0B9
:101640000128F7D06868226A00F48031914204D101
:10165000616A00F47010884201D00120EAE700209E
:10166000E8E70000001002400000424280044242CD
:10167000A00000200070004010B5401EB0F1807F37
:1016800001D3012010BD4FF0E02460610F216017ED
:1016900002F00AF80020A06107202061002010BDA0
:1016A0007047704770B590F83C20012A26D001247D
:1016B00080F83C40022280F83D2003685A689D680B
:1016C00022F070060A6832435A600D4B02689A4253
:1016D00008D0B2F1804F05D00A4B9A4202D00A4B93
:1016E0009A4204D1496825F080031943916080F83B
:1016F0003D40002180F83C10084670BD022070BDBE
:10170000002C0140000400400008004010B5040017
:1017100003D094F83D0010B107E0012010BD002077
:1017200084F83C00204600F01FF8022084F83D00B9
:10173000211D206801F090FC012084F8460084F807
:101740003E0084F83F0084F8400084F8410084F8AB
:10175000420084F8430084F8440084F8450084F88B
:101760003D00002010BD000008B5154A016815486D
:1017700091420ED1C16941F00201C161C0690022EC
:1017800000F00200009001211D20FFF7D7FC1D2072
:1017900010E00D4A914211D1C16941F00401C161CB
:1017A000C069002200F00400009004211E20FFF711
:1017B000C5FC1E20BDE80840FFF7B2BC08BD000014
:1017C00000040040001002400008004090F83D1066
:1017D000012901D001207047022180F83D100168E5
:1017E000CA6842F00102CA6000680B49884208D00A
:1017F000B0F1804F05D00949884202D0084988429B
:1018000004D1816801F00701062903D0016841F085
:101810000101016000207047002C014000040040DD
:101820000008004070B5044690F83C0000250128EF
:1018300017D0012684F83C60022084F83D0020681F
:10184000826822F0770222F47F4282600868502882
:1018500038D00DDC20284FD005DC90B3102811D1F2
:101860004AE0022070BD302846D040280AD13BE033
:1018700060282FD070280DD0B0F5805F03D0B0F570
:10188000005F12D0012584F83D60002084F83C0000
:10189000284670BDCB68D1E90121206801F01FFC0A
:1018A0002068816841F0770109E0CB68D1E9012126
:1018B000206801F014FC2068816841F48041816057
:1018C000E1E719E0CA684968206801F0BDFC5021D1
:1018D000206806E0CA684968206801F0C6FC6021FB
:1018E000206801F006FCCEE7CA684968206801F06C
:1018F000ABFC40212068F4E7226801461046F0E77F
:10190000704770B50446006801694FF00005C9438F
:10191000890715D4C168C943890711D4E91E01613B
:1019200001202077206880698007204602D0FFF7D9
:10193000E7FF04E000F0E8F8204600F00BFA257716
:1019400020680169C943490717D4C168C9434907D9
:1019500013D46FF0040101610220207720688069B0
:1019600010F4407F204602D0FFF7CAFF04E000F0E9
:10197000CBF8204600F0EEF9257720680169C943CD
:10198000090716D4C168C943090712D46FF00801CA
:101990000161042020772068C0698007204602D0BA
:1019A000FFF7AEFF04E000F0AFF8204600F0D2F9F8
:1019B000257720680169C943C90617D4C168C9439E
:1019C000C90613D46FF01001016108202077206848
:1019D000C06910F4407F204602D0FFF791FF04E079
:1019E00000F092F8204600F0B5F9257720680169EB
:1019F000C943C90708D1C168C943C90704D1891EB1
:101A00000161204600F0A7F920680169C943090671
:101A100009D4C168C943090605D46FF0800101618A
:101A20002046FFF73DFE20680169C943490609D4F5
:101A3000C168C943490605D46FF0400101612046E1
:101A400000F08AF920680169C94389060BD4C1688E
:101A5000C943890607D46FF0200101612046BDE823
:101A60007040FFF71EBE70BD00B585B0002100912B
:101A700001910291039100680B49884211D10B48F2
:101A8000816941F0040181618069694600F00400C8
:101A90000490C02000900220019003900448FFF7BA
:101AA000EBF905B000BD000000040040001002404A
:101AB0000008014070B5044690F83C00002501285C
:101AC0000FD0012084F83C006AB1042A0FD0082A04
:101AD00011D00C2A13D00125002084F83C002846A0
:101AE00070BD022070BD206801F00CFBF4E7206897
:101AF00001F030FBF0E7206801F058FBECE72068CC
:101B000001F080FBE8E700002DE9F04105460068A0
:101B1000174988422AD1287F164C012811D1216803
:101B2000001F08612768786BFEF7C1FD0646124862
:101B30000068FEF7B3FD3146FEF754FBFEF7E9FD02
:101B40007863287F022811D12168C01F08612568A9
:101B5000A86BFEF7ACFD044608480068FEF79EFD42
:101B60002146FEF73FFBFEF7D4FDA863BDE8F081F8
:101B7000000400402C010020180000201C00002060
:101B800010B5040003D094F83D0010B107E0012027
:101B900010BD002084F83C00204600F01EF8022012
:101BA00084F83D00211D206801F056FA012084F8D8
:101BB000460084F83E0084F83F0084F8400084F832
:101BC000410084F8420084F8430084F8440084F81B
:101BD000450084F83D00002010BD704730B5002559
:101BE0000446022249B1042912D008293ED094F8B3
:101BF0004100012845D0012030BD94F83E00012865
:101C0000F9D184F83E202068C26842F0020209E05F
:101C100094F83F000128EED184F83F202068C26884
:101C200042F00402C2600122206801F04BFA1A4916
:101C30002068884203D1426C42F40042426420682A
:101C4000884208D0B0F1804F05D01449884202D0B4
:101C50001349884204D1816801F00701062903D0A5
:101C6000016841F001010160284630BD94F8400050
:101C70000128C0D184F840202068C26842F00802E0
:101C8000D0E784F841200C2901D00125ECE7206839
:101C9000C26842F01002C5E7002C01400004004079
:101CA0000008004070B50D0004464FF0000607D054
:101CB000042D0AD0082D0DD00C2D10D001263CE0AB
:101CC0002068C16821F002010DE02068C16821F0A0
:101CD000040108E02068C16821F0080103E02068E1
:101CE000C16821F01001C16000222946206801F07E
:101CF000E9F9174B41F2111120688A10984209D175
:101D0000036A0B4206D1036A134203D1436C23F4E6
:101D1000004343642068036A0B4206D1016A114202
:101D200003D1016821F00101016001203DB1042DC2
:101D300008D0082D09D084F84100304670BD84F8E1
:101D40003E00FAE784F83F00F7E784F84000F4E744
:101D5000002C0140704770477047704710B504462B
:101D60000068406994F84110C0F3C010212911D1D6
:101D700080B12068143050E8001F21F0800140E855
:101D80000012002AF5D1A06B08B1FEF7E3FE204651
:101D900001F044FB2068406994F84210C0F38010C1
:101DA000222911D180B12068143050E8001F21F0A1
:101DB000400140E80012002AF5D1E06B08B1FEF7BF
:101DC000C9FE204601F003FB002010BD7047000053
:101DD000F8B5016804460868CA684B6910F00F0F2F
:101DE0004FF0000559D003F0010602F49077374315
:101DF00065D0C10705D0D10503D5616C41F0010163
:101E00006164410705D5D90703D0616C41F0020137
:101E10006164810705D5D90703D0616C41F00401E5
:101E20006164010707D502F02001314303D0616CE2
:101E300041F008016164616C00293AD0800604D544
:101E4000900602D5204601F0F7FA20684069616CDF
:101E5000C0F38010090700D460B3204601F0B7FA40
:101E600020684069400621D52068143050E8001FE2
:101E700021F0400140E80012002AF5D1E06BA8B142
:101E80006D494163E06BFEF789FE002811D0E06BDD
:101E9000416B01B0BDE8F040084783060FD59306BB
:101EA0000DD52046BDE8F84001F0C6BA2046FFF740
:101EB0008DFFF8BD2046FFF789FF6564F8BD266BEE
:101EC0002023012E7CD1C6067AD5D60678D508689F
:101ED0004868009048694FF00206400640D5E16B23
:101EE000086840680004000CE8D0A28D8242E5D961
:101EF000E085886920282DD020680C3050E8001F2C
:101F000021F4807140E80012002AF5D120681430D5
:101F100050E8001F21F0010140E80012002AF5D12D
:101F20002068143050E8001F21F0400140E8001202
:101F3000002AF5D184F84230256320680C3050E83F
:101F4000001F21F0100140E80012002AF5D1E06BDB
:101F5000FEF700FE6663A08DE18D401A81B22AE093
:101F6000A08DE18D401A81B2E08D0028A6D0002915
:101F7000A4D022680C3252E8000F20F4907042E89E
:101F80000007002FF5D12068143050E8002F22F010
:101F9000010240E80027002FF5D184F84230256384
:101FA00020680C3050E8002F22F0100240E8002397
:101FB000002BF5D166632046FFF7CFFEF8BDFFE7A3
:101FC00005062BD5150629D594F841002128F5D111
:101FD000A068B0F5805F01D12069B0B1206A411CD2
:101FE0002162216800784860E08C401E0004000CEB
:101FF000E084E3D12068C16821F08001C1602068DD
:10200000C16841F04001C160D8E7206A0088C0F390
:1020100008004860206A801C2062E5E74006CDD5B4
:102020005006CBD5CA68204622F04002CA6084F828
:10203000413000F03FF9C1E72933000870B50400D2
:1020400004D094F84100002510B106E0012070BDD5
:1020500084F84050204600F023F8242084F8410002
:102060002068C16821F40051C160204601F046FAA1
:102070002068016921F4904101612068416921F0E3
:102080002A0141612068C16841F40051C160656462
:10209000202084F8410084F842006563002070BD70
:1020A000F0B585B000240646009401940294039490
:1020B00000682D49884254D12C48816941F48041FF
:1020C0008161816901F480410491816941F00401D9
:1020D00081618069264D00F0040004904FF4007087
:1020E0000090022001900320039069462846FEF7E5
:1020F000C3FE2815CDE90004694628460294FEF780
:10210000BBFE1D4D1B488027C5E90004C5E90247F9
:102110002C616C61AC612846EC61FEF735FE08B1BC
:10212000FEF7F2FCF5636E62134D12484435143825
:1021300001C5102091C5104845F8104944306C6124
:10214000AC61EC61FEF720FE08B1FEF7DDFCB56383
:102150000022032125206E62FEF7F0FF2520FEF706
:10216000DFFF05B0F0BD0000003801400010024064
:10217000000801405800024004020020064988423D
:1021800008D1C26B818D12685268891A8AB20349DC
:1021900000F054B870470000BC010020AC000020E3
:1021A0002DE9F843044690F841001F4616460D46B7
:1021B000202802D00220BDE8F8837DB176B100204E
:1021C0006064212084F84100FEF74CFFA68480461D
:1021D000E684A068B0F5805F02D003E00120EAE762
:1021E000206910B12E4600250EE000260CE080216B
:1021F000204601F0DFF9A0B9AEB116F8010B216855
:102200004860E08C401EE084E08C43464FF00002C2
:1022100000970028EBD14FF04001204601F0CAF9A9
:1022200030B10320C7E735F8020BC0F30800E6E73A
:10223000202084F841000020BDE7000070B504466E
:1022400090F84100202801D0022070BD49B342B36C
:102250002162A284E28400206064212384F841305A
:10226000A56B114BAB62A56B104BEB62A56B104BD2
:102270002B63A36B5863256813462A1DA06BFEF7DA
:10228000B1FD21686FF0400008602068143050E80C
:10229000001F41F0800140E80012002AF5D1002023
:1022A00070BD012070BD000083330008C5330008F5
:1022B0003933000870477047FEE7000010B503F09F
:1022C00099FEFEF7F9F902460B4608480849FEF761
:1022D00076F9FEF745FA0749884201DD084610BD48
:1022E00010F1FF4FFBD3002010BD0000D9899DD80D
:1022F000892B2C4100FF7F4770B50D4C0025C4F899
:1023000098510C48016821F070410160016841F06A
:1023100040510160C4F89C51022004F5CC7400F0D7
:10232000B7FF01202060022000F0B2FF256070BDE1
:1023300000802142000C01400E4810B5816986B032
:1023400041F00801816180690B4C00F008000490A5
:10235000C0200090012001900290032003900122F0
:10236000C0212046FEF778FE69462046FEF784FD30
:1023700006B010BD00100240000C014070B50D4CBD
:102380000025C4F898510C48016821F070410160A3
:10239000016841F0405101600126C4F89C610220AF
:1023A00004F5CC7400F074FF2660022000F070FF8A
:1023B000256070BD00802142000C01402DE9F047EE
:1023C000814617480024016821F0704101600168CE
:1023D00041F000410160134E254627464FF00108A9
:1023E000C6F89871022000F053FFC6F89881600685
:1023F000040ED6F81C0108B1641CE4B2022000F0FF
:1024000047FF6D1CEDB2082DEAD3B9F1000F04D0DF
:10241000FFF772FF2046BDE8F087FFF7AFFFF9E74F
:10242000000C0140008021422DE9F041064612488F
:10243000016821F070410160016841F04051016084
:102440000E4C0027C4F898713D464FF00108F00982
:10245000C4F89C017006060EC4F89881022000F0B2
:1024600017FFC4F89871022000F012FF6D1CEDB246
:10247000082DECD3BDE8F081000C01400080214222
:1024800070B50D48016821F070410160016841F0AC
:1024900040510160094C0120C4F89C01C4F8980126
:1024A000022004F5CC7400F0F3FE002565600220E4
:1024B00000F0EEFE256070BD000C0140008021425E
:1024C0000E4810B5016821F070410160016841F0CB
:1024D000405101600A4C0020C4F89801C4F89C01E6
:1024E000022004F5CC7400F0D3FE0120206060606F
:1024F000BDE81040022000F0CBBE0000000C0140FF
:102500000080214270B513480024016821F0704119
:102510000160016841F0004101600F4D0126C5F8DE
:102520009C61022000F0B4FEC5F89861022000F022
:10253000AFFE07E0641CE4B2FA2C03D9FFF7C0FF3A
:10254000012070BDD5F81C010028F3D1C5F8980111
:1025500070BD0000000C01400080214210B5FFF763
:10256000EBFE80216B2000F098F86420FEF772FCEF
:1025700000216B2000F091F8032000F05AF80020B1
:1025800000F052F8642000F071F80121382000F0CA
:1025900084F88021372000F080F8682C01D00120D9
:1025A00010BD01216B2000F078F800216C2000F0B4
:1025B00074F8642000F05AF8002010BD2DE9F041B5
:1025C0001D4614460F460646FFF75AFF7006000EDA
:1025D000FFF72AFFFFF796FF20B1FFF771FF0120F9
:1025E000BDE8F0813846FFF71FFFFFF78BFFFFF7CD
:1025F00047FF012000EB4600C0B2FFF715FFFFF7D1
:1026000081FF09E0012C0DD05FF00100FFF7D6FE3D
:10261000641E05F8010BE4B2002CF3D1FFF750FF64
:102620000020DDE70020F1E7C006010E1C2000F0CD
:1026300034B8C006010E1B2000F02FB8BC2801D30F
:10264000012110E0622801D302210CE02A2801D3E5
:10265000032108E0142801D3042104E00A2801D34F
:10266000052100E006211A2000F017B810B5044635
:102670004FF47A70844201D9044602E0042C00D25F
:102680000424B0FBF4F0401EC1B2192000F005F89C
:102690006008BDE81040FFF7D1BF70B50C46054695
:1026A000FFF7EEFED020FFF7BFFEFFF72BFF50B97C
:1026B0002846FFF7B9FEFFF725FF2046FFF7B4FED7
:1026C000FFF720FF18B1FFF7FBFE012070BDFFF7F9
:1026D000F7FE002070BD2DE9F0411E4615460F465D
:1026E0000446FFF7CDFE6006000EFFF79DFEFFF7E4
:1026F00009FF60B93846FFF797FEFFF703FF002494
:102700000CE0305DFFF790FEFFF7FCFE20B1FFF715
:10271000D7FE0120BDE8F081641CE4B2AC42F0D3E6
:10272000FFF7CEFE0020F5E70D4808B5416941F0FE
:10273000010141614069002200F001000090114652
:102740000E20FEF7FBFC0E20FEF7EAFC00221146ED
:102750000F20FEF7F3FCBDE808400F20FEF7E0BCB9
:10276000001002402DE9F04786B000243348009461
:10277000019402940394816941F01001816181699F
:1027800001F010010491816941F0200181618169AA
:1027900001F020010491816941F0040181618169A6
:1027A00001F004010491816941F0080181618069AF
:1027B000012200F00800DFF88880550304902946C4
:1027C0004046FEF749FCDFF87C900022382148465D
:1027D000FEF742FCDFF870A0AF00002239465046F9
:1027E000FEF73AFC0095022601250396CDE9015437
:1027F00069464046FEF740FB00970396CDE9015439
:1028000069465046FEF738FB3820CDE90005CDE992
:10281000024669464846FEF72FFB202000900B48F1
:10282000CDE9010569465046FEF726FB002201214D
:102830001720FEF783FC06B0BDE8F08700100240C9
:102840000010014000080140000C01400000111080
:1028500010B58EB000240794089409940A940B9440
:102860001C2168460C94FDF7A5FC28482649016008
:102870000E21C0E901144FF6FF71C0E90314846111
:10288000FEF744FF08B1FEF73FF94FF48050079080
:1028900007A91E48FEF7C6FF08B1FEF735F91B4829
:1028A000FFF76EF908B1FEF72FF90B940BA9174843
:1028B0000C94FEF7F7FE08B1FEF726F93020CDE9BB
:1028C000000402940022694610480494FFF7F2F8CD
:1028D00008B1FEF719F9042269460C48FFF7EAF837
:1028E00008B1FEF711F90948FFF7BEF80748FEF7EF
:1028F0006DFF00210548FFF771F904210348FFF738
:102900006DF90EB010BD0000000400402C01002045
:1029100010B586B0002418480094019402940394E2
:1029200004941449059401604721C0E901144FF64D
:10293000FF71C0E903148461FEF7E8FE08B1FEF7F9
:10294000E3F84FF48050009069460B48FEF76AFFA9
:1029500008B1FEF7D9F8049404A907480594FEF7D6
:10296000A1FE08B1FEF7D0F80348FEF72FFF06B02E
:1029700010BD000000080040740100200C4810B594
:102980000A4901604FF4E1314160002181600C226D
:10299000C160C0E904128161C161FFF74FFB0028EB
:1029A00003D0BDE81040FEF7AFB810BD00380140BD
:1029B000BC010020FEE7FEE770B50024002104F111
:1029C000B00000F09AF90021084600F096F90021C5
:1029D000102000F092F900250121002000F08DF96F
:1029E0006D1CEDB2802DF7D3641CE4B2082CE5D346
:1029F00070BD000070B501220B4D1402214628461F
:102A0000FEF72AFB0122560231462846FEF724FB38
:102A1000002231462846FEF71FFB21462846BDE826
:102A200070400022FEF718BB000C014070B5012277
:102A30000E4D140221462846FEF70EFB66000022CA
:102A400031462846FEF708FB012221462846FEF7BC
:102A500003FB012231462846FEF7FEFA21462846AE
:102A6000BDE870400122FEF7F7BA0000000C0140FB
:102A700070B50A4C00224FF400712046FEF7ECFAC4
:102A80000122150229462046FEF7E6FA294620468D
:102A9000BDE870400022FEF7DFBA0000000C0140E4
:102AA000F0B585B00024009401940294642003944E
:102AB000FEF7D0F95548816941F0080181618169CB
:102AC00001F008010491816941F008018161806988
:102AD000012200F008004E4E1502049029463046AF
:102AE000FEF7BAFA0122570239463046FEF7B4FA29
:102AF0004FF4407000900120CDE9010402200390C2
:102B000069463046FEF7B8F969463046FEF7B4F933
:102B1000012229463046FEF79FFA01223946304607
:102B2000FEF79AFA6420FEF795F90021AE2000F036
:102B3000E4F80021084600F0E0F80021102000F041
:102B4000DCF80021402000F0D8F80021B02000F08F
:102B5000D4F80021812000F0D0F80021FF2000F0FF
:102B6000CCF80021A12000F0C8F80021A62000F038
:102B7000C4F80021A82000F0C0F800213F2000F098
:102B8000BCF80021C82000F0B8F80021D32000F0E4
:102B9000B4F80021084600F0B0F80021D52000F07C
:102BA000ACF80021802000F0A8F80021D82000F027
:102BB000A4F80021052000F0A0F80021D92000F0A1
:102BC0009CF80021F12000F098F80021DA2000F0B4
:102BD00094F80021122000F090F80021DB2000F092
:102BE0008CF80021302000F088F800218D2000F0C2
:102BF00084F80021142000F080F80021AF2000F0BC
:102C00007CF8FFF7D9FE05B0F0BD000000100240CF
:102C1000000C014010B50A460446002102F1B00044
:102C200000F06BF8102040EA1410002100F065F865
:102C300004F00F00BDE81040002100F05EB8000075
:102C40002DE9F041203A00240D468046D6B27F2877
:102C500003D900208D1C8046EDB2102B294610D0E0
:102C6000FFF7D8FF164906EB460001EB40050121AE
:102C7000285D00F042F8641CE4B2062CF7D3BDE8EE
:102C8000F081FFF7C7FF0F4F04EB06100121385CFE
:102C900000F033F8641CE4B2082CF5D36D1CE9B2E3
:102CA0004046FFF7B7FF002404EB0610384401212B
:102CB000007A00F022F8641CE4B2082CF4D3DEE7BA
:102CC00048610008706300082DE9F0411F46154671
:102CD0000E4604460CE03B4631462046FFF7B0FF67
:102CE0000834E4B2782C02D90024B61CF6B26D1C6C
:102CF0002A78002AEFD1BDE8F081C0B209B100F016
:102D000048B800F02FB800002DE9F041144F0446F8
:102D10004FF48076002231463846FEF79DF90025B3
:102D20004FF4007804F08000802816D0002241463D
:102D30003846FEF791F96006040E01223146384606
:102D4000FEF78AF9002231463846FEF785F96D1CF8
:102D5000EDB2082DE6D3BDE8F0810122E7E70000DF
:102D6000000C014010B50446FFF744FE7820FFF741
:102D7000CBFFFFF77DFE0020FFF7C6FFFFF778FED1
:102D80002046FFF7C1FFFFF773FEBDE81040FFF7D5
:102D90004DBE10B50446FFF72DFE7820FFF7B4FFB7
:102DA000FFF766FE4020FFF7AFFFFFF761FE20460A
:102DB000FFF7AAFFFFF75CFEBDE81040FFF736BE45
:102DC000704700002DE9F04F89B007A96948CDE9A7
:102DD000000100F11A0106AB02AA143001F0DAFB7F
:102DE000644C2088C0057CD50298FDF757FC6FF035
:102DF0001D073946FDF7BEFA064660600398FDF7E9
:102E00004DFC3946FDF7B6FA8046A0600498FDF700
:102E100045FC3946FDF7AEFA0546E0600598FDF73A
:102E20003DFC3946FDF7A6FA0746206101213046F0
:102E3000FDF7A0FA2946FDF72DFA05464FF040466A
:102E400031464046FDF726FA3946FDF723FA294672
:102E5000FDF7C8F9FDF771FC00F026FFDFF81891C7
:102E60004FF0663842464B46FDF737FBFDF778FCDE
:102E700042490860E06801210546FDF77BFA824679
:102E80002946FDF707FA0546A06831460646FDF7D4
:102E900001FA3146FDF7FEF92946FDF7F5F94FF045
:102EA0007E51FDF79FF9FDF748FC07460D460121CD
:102EB0006068FDF75FFA3146FDF7ECF906465046CB
:102EC0002169FDF7E7F93146FDF78CF9FDF735FC8F
:102ED0003A462B4601F030F942464B46FDF7FDFAE3
:102EE00000E044E0FDF73CFC2549086021690191C0
:102EF0000846FDF7CFF9E168074608460091FDF75F
:102F0000C9F9A16806468B465846FDF7C3F96168C2
:102F100005468A465046FDF7BDF92946FDF762F998
:102F20003146FDF7B1F93946FDF7AEF9FDF705FC7D
:102F300005460C4650460199FDF7ACF90646584641
:102F40000099FDF7A7F93146FDF74CF90121FDF78E
:102F500011FAFDF7F2FB2A46234601F0EDF842464E
:102F60004B46FDF7BAFAFDF7FBFB0649086009B0CE
:102F7000BDE8F08F3800002066A64C4024000020F9
:102F800020000020280000207047000010B50C46EB
:102F9000012100230E4A002802DDC2F8901101E051
:102FA000C2F89031002C02DDC2F8943101E0C2F881
:102FB0009411FFF783F9FDF793FB0649086020465B
:102FC000FFF77CF9FDF78CFB0349086010BD00009A
:102FD00000002142180000201C000020FEF748B825
:102FE00030B58FB028216846FDF7E4F814210AA80F
:102FF000FDF7E0F801210804CDE900100024029457
:1030000002250491CDE907504FF4E010099068467D
:10301000FEF7A2F908B172B6FEE70F20CDE90A0566
:103020004FF48060CDE90C4002210AA80E94FEF70F
:10303000B7F8002801D072B6FEE70FB030BD704778
:103040000148FEF75EBC00002C0100200148FEF79D
:1030500058BC000074010020F0B50268164B174CF4
:10306000174D4FF08047984205D0B84203D0A04298
:1030700001D0A84203D122F070064A683243984238
:1030800005D0B84203D0A04201D0A84203D122F417
:103090004074CA6822434C6922F0800222430260D5
:1030A0008A68C2620A688262984201D10969016332
:1030B00001214161F0BD0000002C014000040040EE
:1030C0000008004010B501F01F030121046A994077
:1030D0008C430462016A9A401143016210BD10B52D
:1030E000846842EA032224F47F440A432243826034
:1030F00010BD826822F070020A4342F0070181602D
:103100007047000030B5036A026A22F001020262D1
:103110004268846924F073050C682C4323F002058F
:103120008B682B430A4DA8420BD123F00805CB68CE
:1031300022F440722B434D6923F0040315438A693E
:103140002A434260846149684163036230BD0000E4
:10315000002C014030B5026A036A23F010030362B9
:10316000436884690D6824F4E64444EA05248D68C4
:1031700022F0200242EA05120B4DA8420ED1CD6882
:1031800022F0800242EA05124D6923F4406343EACB
:1031900085038D6922F0400243EA85034360846120
:1031A00049688163026230BD002C014030B5036A7A
:1031B000026A22F4807202624268C46923F40073D6
:1031C00024F073050C682C438D6843EA05230C4DED
:1031D000A8420ED1CD6823F4006343EA05234D696C
:1031E00022F4405242EA05128D6923F4806342EAD8
:1031F00005124260C4614968C163036230BD0000CA
:10320000002C014030B5046A026A22F48052026246
:103210004268C3690D6823F4E64343EA05238D68D9
:1032200024F4005444EA0534064DA84204D14D6903
:1032300022F4804242EA85124260C3614968016417
:10324000046230BD002C014010B5036A046A24F00A
:1032500001040462846924F0F00444EA021423F0B7
:103260000A020A438461026210BD10B5036A046A4F
:1032700024F010040462846923F0A00324F4704451
:1032800044EA023243EA01118261016210BD00008A
:103290000D4900220B685A620A68136843F0010363
:1032A000136009684A6A8242FCD3086A41F211122B
:1032B000104207D1086A9210104203D1086820F02A
:1032C0000100086070470000740100200F4B10B52A
:1032D00000210F4A984202D80E4B984211DD0E4849
:1032E000012401600D480160C2F88C410C490D4871
:1032F0000C700021FEF7D6FC04210A48FEF7D2FC30
:1033000002E00024C2F88C11204610BD000020C24B
:103310000000214200002042100000201400002084
:10332000000000202C01002010B5406A0021C1855A
:10333000C184FEF74BFD10BD70B5446A206840693A
:1033400094F84110C0F3C0100025212904D118B110
:10335000E584204600F062F82068406994F8421045
:10336000C0F38010222904D118B1E585204600F071
:103370002EF8606C40F0100060642046FEF726FDD9
:1033800070BD10B50146406A09680968890616D4FF
:103390000021C1840168143151E8002F22F080021D
:1033A00041E80023002BF5D101680C3151E8002FD2
:1033B00042F0400241E80023002BF5D110BDFEF79A
:1033C00079FF10BD10B5406AFEF775FF10BD0168AA
:1033D0000C3151E8002F22F4907241E80023002BB9
:1033E000F5D10168143151E8002F22F0010241E8C3
:1033F0000023002BF5D1016B012909D101680C31A3
:1034000051E8002F22F0100241E80023002BF5D1F3
:10341000202180F8421000210163704701680C31BF
:1034200051E8002F22F0C00241E80023002BF5D123
:10343000202180F84110704708B590F842102229E9
:1034400001D0022008BD82684FF480539A4201D116
:10345000016921B1816A9A421BD04AB10AE002682F
:10346000816A5268C2F308020A80816A891C08E0F6
:10347000026972B10268526802F07F020A70816AC2
:10348000491C8162C18D491E0904090CC18503D004
:103490001BE002685268F1E70168CA6822F0200266
:1034A000CA600168CA6822F48072CA6001684A6909
:1034B00022F001024A61202180F84210002141637C
:1034C000026B012A03D0FEF759FE002008BD0163FC
:1034D00001680C3151E8002F22F0100241E800236E
:1034E000002BF5D101680A68D20602D50A6849683E
:1034F0000091818DFEF731FCE7E7000070B50446CE
:1035000000680169E26821F44051114301612169B9
:10351000A0680843616908432168CA6841F20C63E6
:103520009A430243CA6020684169A26921F440714C
:10353000114341611E492068884202D1FDF7D6FE41
:1035400001E0FDF7C3FE00EBC00101EB0012606873
:1035500064218000B2FBF0F3B3FBF1F36FF01806C7
:103560007343B2FBF0F5B2FBF0F605EB83053223B3
:1035700003EB0515B5FBF1F5B6FBF1F605F0F0052B
:1035800005EB0615B2FBF0F6B2FBF0F0B0FBF1F084
:103590006FF01802504306EB800003EB0010B0FB05
:1035A000F1F0216800F00F002844886070BD000031
:1035B000003801402DE9F041984617460E46044672
:1035C000069D27E0681C25D02DB1FDF74BFDA0EB33
:1035D0000800A8421ED920680C3050E8001F21F4D2
:1035E000D07140E80012002AF5D12068143050E86C
:1035F000001F21F0010140E80012002AF5D120202F
:1036000084F8410084F84200002084F84000032040
:10361000BDE8F0812068006836EA000004D0002090
:10362000B842CFD00020F3E70120F9E710B50A48EF
:10363000FEF7CEFB084800680168C943C90609D4F3
:10364000016840680448FEF789FBBDE81040024865
:10365000FEF794BD10BD0000BC010020FEE7000095
:103660000FB4054B10B503A9044A029800F0AAF85C
:1036700010BC5DF814FB0000294C0008A4000020D9
:10368000490050EAC12018BF04204A0D18BF40F07D
:10369000010040F2FF72B2EB515F08BF40F0020040
:1036A000012808BF052070470907090E002804DB20
:1036B00000F1E02080F80014704700F00F0000F1E6
:1036C000E02080F8141D70472DE9F0414F1E00EBFB
:1036D000C7010446D1E9000115461E4637F006022F
:1036E0000DD02A463346FCF7F8FE7F1E04EBC703D5
:1036F000D3E90023FCF74AFE37F00602F1D1022F8E
:1037000025D0042F13D0062F18BFBDE8F0812A461C
:103710003346FCF7E2FED4E90A23FCF737FE2A46DB
:103720003346FCF7DAFED4E90823FCF72FFE2A46DD
:103730003346FCF7D2FED4E90623FCF727FE2A46DF
:103740003346FCF7CAFED4E90423FCF71FFE2A46E1
:103750003346FCF7C2FED4E90223FCF717FE2A46E3
:103760003346FCF7BAFED4E90023BDE8F041FCF78C
:103770000DBE0122FDF7F6B8FCF708BE0022134685
:1037800010461146FCF71BBF024A00201107FDF747
:10379000E9B8000001FDFFFF02E008C8121F08C1E0
:1037A000002AFAD170477047002001E001C1121FC2
:1037B000002AFBD1704700000149086070470000F3
:1037C000A80000202DE9FF4F8DB00F4605460026CA
:1037D00006E025280BD0DDE90F1290476D1C761C02
:1037E00028780028F5D111B03046BDE8F08F0024CC
:1037F000A246A1460122EC4900E0044315F8013F2E
:10380000203B02FA03F00842F7D128782A2810D08A
:103810006FF02F022878A0F13001092914D80AEBA3
:103820008A0102EB410144F0020400EB010A6D1C25
:10383000F0E701CF5FEA000A03D544F40054CAF16F
:10384000000A44F002046D1C28782E2817D115F8C0
:10385000010F44F004042A280ED06FF02F022878BC
:10386000A0F1300109290AD809EB890102EB4101D5
:1038700000EB01096D1CF2E757F8049B6D1C2878DA
:103880006C280FD006DC4C2817D068280DD06A2889
:1038900014D104E0742810D07A280FD10DE044F43C
:1038A00000140AE044F4801401E044F44014697800
:1038B000814202D104F580146D1C6D1C2A786E2A99
:1038C0001FD00CDC632A31D004DC002A8BD0582AAC
:1038D00011D1A3E0642A68D0692A0CD165E0732A6B
:1038E0002ED004DC6F2A73D0702A04D19BE0752A95
:1038F0006FD0782A6ED01046DDE90F129047761C03
:1039000050E1C4F30250022806D0032809D004284D
:1039100001CF09D0066045E101CFF117C0E9006190
:1039200040E101CF06803DE106703BE117F8040B52
:103930008DF8000000208DF80100EB46012003E027
:1039400057F804BB4FF0FF3061074FF0000102D47D
:103950000DE008F10101884649450FDA8045F8DBA2
:103960001BF808100029F4D108E008F1010188468D
:103970008142FADB1BF808100029F6D1DDE90F239C
:10398000AAEB08008146214600F036F9304400EBEE
:10399000080604E0DDE90F121BF8010B9047B8F1AF
:1039A0000108F7D221464846F7E00A21C4F3025342
:1039B0004FF0000B0891022B04D001CFC117032B4D
:1039C00009D00AE0FF1D27F00707F7E8020108E029
:1039D00032E01FE020E000B2C117042B01D140B259
:1039E000C117031E71F1000307DA4FF0000CD0EB92
:1039F0000C006CEB01012D2302E0230504D52B23E1
:103A00008DF82430012303E0E30701D02023F7E7FA
:103A1000984658E00A2110E010210EE010204FF0E7
:103A2000000B08900CE010214FF0000B44F0040450
:103A30004FF00809089103E008214FF0000B0891AE
:103A4000C4F30253022B04D001CF0021032B06D074
:103A500006E0FF1D27F00707F7E8020103E080B248
:103A6000042B00D1C0B24FF0000823072BD5702AD9
:103A700007D0DDF820C08CF0100C5CEA0B0C05D0F0
:103A80000EE040238DF82430012308E050EA0103C2
:103A900006D030238DF824308DF825200223984657
:103AA000DDF820C08CF0080C5CEA0B0C0BD150EA5E
:103AB000010301D1630706D530238DF824304FF080
:103AC0000108A9F10109582A04D038A20B9208AACA
:103AD0000A920BE03AA2F9E75B46089AFCF75CFE13
:103AE0000B9B9B5C0A9A521E0A92137050EA0102C9
:103AF000F2D10A98ADEB000000F1200B600702D56F
:103B000024F4803401E04FF00109D94502DDA9EB2E
:103B10000B0000E0002000EB0B0141440890AAEBF1
:103B2000010AE00306D4DDE90F232146504600F0E8
:103B300063F806444FF0000908E009A911F80900EC
:103B4000DDE90F12904709F10109761CC145F4DB4C
:103B5000E0030CD5DDE90F232146504600F04CF878
:103B6000064404E0DDE90F1230209047761C0899E6
:103B7000481E08900029F5DC08E00A980A990078A8
:103B8000491C0A91DDE90F129047761CBBF1000138
:103B9000ABF1010BF1DC21465046DDE90F2300F0CB
:103BA00019F806446D1C1BE6092801003031323338
:103BB0003435363738396162636465660000000069
:103BC0003031323334353637383941424344454653
:103BD000000000002DE9F041044600251E4617466E
:103BE000880404D405E039462020B0476D1C641ECB
:103BF000F9D52846BDE8F0812DE9F04104460025BD
:103C00001E469046C80301D5302700E020278804CF
:103C100004D505E041463846B0476D1C641EF9D511
:103C20002846BDE8F08100002DE9FE4F07460E460C
:103C30000025684601F004F800246FF00F0AE846FA
:103C40004FF0010957F8240056F82410401A00D507
:103C50004042FCF723FD5146FCF78CFB58F824103A
:103C600011F0FF4F0BD0FCF747FB4FF07E51FCF7F4
:103C70000BFB0A4920F00040884205DC07E00849B8
:103C800008440849884202D309FA04F00543641C39
:103C9000032CD7DB2846BDE8FE8F0000295C0F3ED1
:103CA000666666C19A99D9002DE9F04D8D4F21F0D5
:103CB000004A86B005460C46BA452ADBAAEB070047
:103CC00028430AD08848824501DC1AD1CDB106B01C
:103CD0002846BDE8F04DFFF74CBD844A844B28468A
:103CE000FCF7FBFB07460E46824A834B28462146DB
:103CF000FCF7F3FB06B03A463346BDE8F04DFCF75F
:103D000045BB0120FFF758FD06B0BDE8F04DFFF7B9
:103D100035BD7A48824542DABAF1795F0BDA284636
:103D2000FFF7AEFC042808BFFFF72EFD284606B0BB
:103D30002146BDE8F08D2A460B461046FCF7CDFB28
:103D4000834602466E480E460B4606217844FFF72E
:103D5000BBFC5A463346FCF7C0FB804669488A469E
:103D60005A46334604217844FFF7AEFC5A463346A0
:103D7000FCF7B3FB00223B46FCF708FB02460B4670
:103D800040465146FCF71BFC2A462346FCF7A5FBA0
:103D900006B02A462346BDE8F04DFCF7F7BA2846A0
:103DA00024F0004100223D463B46FCF793FB4FF0D8
:103DB000FF32FCF7D7FD0646024653480F460B4636
:103DC00006217844FFF780FC32463B46FCF785FB32
:103DD000CDE900014D4832463B4604217844FFF7C7
:103DE00073FC32463B46FCF778FB00222B46FCF77F
:103DF000CDFA834602913046394602F07FF980467B
:103E000043480D46504517DCDDE900015A46029B48
:103E1000FCF7D5FB42462B46FCF75FFB42462B46A0
:103E2000FCF7B4FA0122FCF79DFD304A304BFCF759
:103E30004EFB304A304B4CE04FF0000A52460B46E6
:103E40004046FCF7A3FACDE9031052462B46104634
:103E50001946FCF742FB32463B46FCF73BFBDDE9EB
:103E60000332FCF7ACFB06460F46DDE900015A467B
:103E7000029BFCF7A4FB83460091012230463946A1
:103E8000FCF770FD194A1A4BFCF724FB06460F4657
:103E9000012240462946FCF765FD5A46009BFCF787
:103EA0001CFB32463B46FCF712FB06460F4601223E
:103EB00050462946FCF756FD0E4DDFF858802A463D
:103EC0004346FCF707FB32463B46FCF703FB2A461A
:103ED0004346FCF7FFFA002CD8BF81F0004106B042
:103EE000BDE8F08D0000F03F0000F07F075C143368
:103EF00026A6913C182D4454FB21F93F0000E03FD9
:103F000080380000963800000A3800002038000091
:103F10003333EF3FFB21E93F2DE9F84F04460D46CF
:103F200021F0004000917349814211DC72498842BE
:103F300001DC06D12CB120462946BDE8F84FFFF739
:103F400018BC6E48002DCCBF6D496E49BDE8F88F96
:103F50006D49814211DD6D498142D8BF4FF0FF3676
:103F60006DDD20462946FFF78BFB042808BFFFF7CD
:103F70000BFC20462946BDE8F88F6549654F25F0C2
:103F80000045814233DD6449814219DD0026324615
:103F90004FF0804320462946FCF7F8F980468A46D0
:103FA000012220462946FCF7DDFC00223B46FCF7B7
:103FB0008EFA42465346FCF702FB04460D463EE0AD
:103FC00001260022BA463B4620462946FCF7DEF988
:103FD00080460F460022534620462946FCF777FAD2
:103FE00042463B46FCF7EBFA04460D4627E04B49B8
:103FF00081421BDDDFF828A102260022534620461D
:104000002946FCF76AFA00223B46FCF7BFF98046D6
:104010000F460022534620462946FCF758FA4246EE
:104020003B46FCF7CCFA04460D4608E00326224640
:104030002B4600203B49FCF7C2FA04460D462246B7
:104040002B4610461946FCF748FA8B468246024634
:104050000B46FCF742FA07460246334888460B46B1
:1040600006217844FFF730FB52465B46FCF735FAF1
:1040700082462E488B463A46434605217844FFF750
:1040800023FB3A464346FCF728FA02460B46002E2D
:10409000504659460CDAFCF779F922462B46FCF7D4
:1040A0001CFA01B022462B46BDE8F04FFCF712BACD
:1040B000FCF76CF922462B46FCF70FFA1C4A7A44AF
:1040C00002EBC603D3E90023FCF701FA22462B4694
:1040D000FCF7FDF9174A7A4402EBC603D3E9002343
:1040E000FCF7F8F9009A002AB8BF81F00041BDE85A
:1040F000F88F0000000010440000F07F182D445499
:10410000FB21F93FFB21F9BF0000DC3F0000203E0E
:104110000000F33F0000F03F0000E63F0080034056
:104120000000F83F0000F0BF22360000E03500003C
:104130007E350000463500002DE9F04D9446CCF167
:10414000000423F000464CEA0404524F46EAD474BB
:104150009A46884621F00042BC4206D8454240EAD1
:10416000050442EAD474BC4204D9BDE8F04D62466D
:10417000FFF702BBAAF14055A5F17F6555EA0C0493
:104180000BD0022404EAAA74434DDFF810E144EA9C
:10419000D87452EA000B04D00CE0BDE8F04DFFF7F4
:1041A000BBBE002C14BF012CBDE8F08D022C30D01A
:1041B000032C32D056EA0C0B0AD0BE4220D1BA42B0
:1041C00009D126F0804622F080423346114617E09E
:1041D00000291ADB25E0DFF8C8B0FB44002C04BF3F
:1041E000DBE90001BDE8F08D012C02BFDBE9000135
:1041F00081F00041BDE8F08D022C0AD0032C0CD0D8
:10420000BA4212D1B8F1000F0BDA23482549BDE8B4
:10421000F08D28462449BDE8F08D28467146BDE85A
:10422000F08D1D482149BDE8F08D921B12153C2AE6
:10423000C4BF19481D490EDCBAF1000FBEBF12F110
:104240003C0F0020014606DB6246FCF7B8F921F07E
:104250000041FFF761FE002C08BFBDE8F08D012C86
:1042600004BF81F00041BDE8F08D114A114B022CD2
:1042700007D0FCF72CF92A46BDE8F04D0A4BFCF7B5
:1042800026B9FCF724F92A46BDE8F04D064BFCF7A9
:1042900021B900000000F07F182D4454FB2109C013
:1042A000DA340000FB21F9BFFB210940FB21F93F73
:1042B000075C143326A6A13C70B50C464FF07E5126
:1042C000FBF7E2FF0546094821460068FBF7E2FFDD
:1042D0000446074829460068FBF7DCFF2146FBF748
:1042E00081FFBDE87040FCF7FBB90000080000202A
:1042F0000400002008B560B120208DF800002820BF
:104300008DF8010030208DF8020038208DF8030070
:1043100004E0A32204216846FBF745FF6A46042116
:1043200040F69E2001F03CFE01F0FEFA08BD0000C0
:104330003EB5044602208DF80000CA208DF8010029
:10434000E3208DF8020009208DF803006A4604215D
:10435000682001F025FEA3208DF80000610609D534
:10436000C0218DF80110C8218DF80210C2218DF8EE
:10437000031005E08DF801008DF802008DF80300B0
:1043800014F4C07F09D0C4218DF80410CC218DF81D
:104390000510C6218DF8061005E08DF804008DF893
:1043A00005008DF806008DF808008DF807008DF8DF
:1043B00009006A460A2140F6A72001F0F1FDA00796
:1043C0004FF0D80503D020208DF8000001E08DF8D3
:1043D00000506A46012140F6B62001F0E1FDA0063A
:1043E00001D5012000E0002000F08EF814F4C07F19
:1043F0001ED0E0050AD5B2208DF800008B208DF884
:104400000100B6208DF802009B2009E0B0208DF855
:10441000000080208DF80100B4208DF8020090206B
:104420008DF803006A46042140F6A22001F0B8FD91
:10443000E1074FF40B6022D0F8218DF800106A4696
:10444000012101F0ADFDFA21072000F039FB072022
:1044500000F004FB012000F021FB642000F0C4FB0D
:104460004FF4FA7000F0D0FBC821254800F0BEFAE6
:10447000282000F0D3FA0A2000F0E0FA05E08DF8D9
:1044800000506A46012101F08BFDA00703D5D92019
:104490008DF8000001E08DF800506A46012140F2DD
:1044A0003D7001F07DFD600701D5012000E0002096
:1044B00000F048F8E00601D5012000E00020FFF7F9
:1044C00019FF104D44F00800688101F02DFA00201A
:1044D000A873600601D50620A87314F4C07F02D02B
:1044E000A87B801DA87314F0140F02D0A87B103095
:1044F000A873A00702D0A87B001DA87300203EBDB2
:1045000009E3CA028C0200200EB54FF4976310B184
:1045100006A107C901E008A207CA8DE807006A469C
:104520000921184601F03CFD0EBD0000B8AAB38D6C
:10453000B4980D355D000000B8AAAAAAB088C3C51A
:10454000C700000008B560B1C0208DF80000C2208F
:104550008DF80100C4208DF80200C6208DF80300FC
:1045600004E08B2204216846FBF71DFE6A46042105
:1045700040F6982001F014FD01F0D6F908BD0000C6
:10458000C8234FF48062024940F6F63001F0AEB81D
:10459000B06900082DE9FF4F89B01746DDE91652D2
:1045A00000244C4E884681462C80A246B07B69464A
:1045B00001F048F94FF0FF3B18B158460DB0BDE887
:1045C000F08F708910F0140F3CD0009909BA21F0D7
:1045D000FF039DF803100B433B6001991B1409BABC
:1045E00021F0FF029DF807105B430A437A600299AD
:1045F0009DF80B4009BA21F0FF012143B960039CEB
:10460000091424BA24F0FF0C9DF80F4012144CEA50
:10461000040CC7F80CC04FEA2C47494302FB023296
:1046200007FB071111441024A1F17061B1F1007F63
:1046300004D901F079F9A5F800A0BEE7298841F472
:10464000807129804206694611D50A19A41D138874
:104650005BBAA8F8003053885BBAA8F80230928899
:1046600052BAA8F804202A8842F008022A8010F4DE
:10467000C07F11D00A19A41D13885BBAA9F80030B5
:1046800053885BBAA9F80230928852BAA9F804207C
:104690002A8842F070022A80800716D00C44E07805
:1046A00000F0C00500F03F016078C00706D0C808E0
:1046B00001F007013268491C02B190476078000799
:1046C00003D5716809B1A80988470C9800F074FDFA
:1046D000002073E78C0200202DE9FF41044603A867
:1046E00000F0BAFEBDF80C00410CC3032F4802894C
:1046F00002F00300550754F8200000D54042C2F3F1
:10470000C105960654F8255000D56D42C2F38116B6
:10471000D20554F8264000D56442A0FB0367C217B7
:1047200002FB037200FB0120820042EA9670A5FBA7
:104730000367EA1702FB037205FB0122950045EAB5
:104740009672A4FB0367E51705FB037304FB0131B5
:104750008B0043EA9671030E8DF80030030C8DF840
:104760000130030A8DF802308DF80300100E8DF829
:104770000400100C8DF80500100A8DF80600080ED4
:104780008DF80800080C8DF80900080A8DF80A0059
:104790008DF807208DF80B106A460C214FF4257018
:1047A00001F0FEFB04B0BDE8F08100008C020020A7
:1047B00030B5044613A285B007CA8DE807004FF054
:1047C000FF35C82C16D8C820B0FBF4F1491E080AE2
:1047D0008DF80C008DF80D1003AA022140F216206E
:1047E00001F0DEFB30B96A460C2140F6C12001F031
:1047F000D7FB10B1284605B030BD054884810020A4
:10480000F9E70000FEF2ABC4AAF1DFDFBBAFDFDFE8
:104810008C020020F8B53049098901F0030250F8F4
:1048200022404A0700D56442C1F3C1028B0650F80A
:10483000222000D55242C1F3811350F82330C8051D
:1048400000D55B42254984FB0140850045EA947010
:1048500082FB0142A40F44EA820483FB0121950FED
:1048600045EA8105010E8DF80010010C8DF801104C
:10487000010A8DF802108DF803006A4604214FF4F6
:10488000747001F08DFB4FF0FF3688B9200E8DF863
:104890000000200C8DF80100200A8DF802008DF830
:1048A00003406A4604214FF4757001F079FB08B1AA
:1048B0003046F8BD280E8DF80000280C8DF8010058
:1048C000280A8DF802008DF803506A4604214FF43F
:1048D000767001F065FBF8BD8C02002009E3CA0286
:1048E0002DE9FF4104463CA004F003030068029058
:1048F0003AA0006803903AA006683AA0056802A8AA
:10490000C15C8DF80010C4F3C101425C8DF8012038
:10491000C4F38112805C8DF8020003A8C35C8DF89B
:104920000430415C8DF80510805C8DF806006A4605
:10493000032140F2264001F033FB4FF0FF37E0BB8C
:1049400001AA032140F22A4001F02AFBA8BBCDE9CD
:10495000006560070BD59DF8000040F001008DF860
:1049600000009DF8040040F001008DF80400A0064E
:104970000BD59DF8010040F001008DF801009DF875
:10498000050040F001008DF80500E0050BD59DF80D
:10499000020040F001008DF802009DF8060040F092
:1049A00001008DF806006A4603214FF4886001F08B
:1049B000F7FA10B901AA032100E004E040F2314007
:1049C00001F0EEFA18B1384604B0BDE8F0810648AF
:1049D00004810020F8E700004CCD6C000CC92C00CD
:1049E00036567600264666008C0200204FF47A7216
:1049F00090FBF2F008B54843010E8DF80010010C51
:104A00008DF80110010A8DF802108DF803006A4636
:104A100004214FF4AE7001F0C3FA08BD0521B0FBCC
:104A2000F1F008B5010A8DF800108DF801006A4612
:104A300002214FF4AD7001F0B3FA08BD0521B0FBBF
:104A4000F1F008B5010A8DF800108DF801006A46F2
:104A500002214FF4AC7001F0A3FA08BD08B50021A3
:104A60008DF80010C10702D030218DF800108107A9
:104A700005D59DF8001041F00C018DF8001040079D
:104A800005D59DF8000040F003008DF800006A464F
:104A900001214FF4A47001F083FA08BD08B560B19C
:104AA000042800D90420401E8DF800006A46012128
:104AB00040F24F1001F074FA08BD0120F3E7000046
:104AC0002DE9FC41054640074FF0FF367CD0B1F59B
:104AD000C86F79D80846FBF7EAFD3E49FBF70CFCA6
:104AE000074601A800F09AFC9DF80400022806D0B1
:104AF00004280DD008282ED0102865D134E00E21CE
:104B00003846FBF737FCFBF704FE84B2324907E076
:104B10000D213846FBF72EFCFBF7FBFD2F4984B235
:104B20003846FBF7B7FBFBF7F4FD210A8DF80010C0
:104B300080B28DF80140010A8DF802108DF8030053
:104B4000E8076C4620D0224602214FF4EA7001F0BB
:104B500027FAC8BB11E00C213846FBF70BFCFBF72A
:104B6000D8FD84B21E49DBE70B213846FBF702FC77
:104B7000FBF7CFFD84B21B49D2E7A21C02214FF400
:104B8000927001F00DFAF8B9A8070DD56A46022116
:104B90004FF4EC7001F004FAB0B9A21C02214FF4FA
:104BA000947001F0FDF978B9680710D56A460221C2
:104BB0004FF4EE7001F0F4F930B9A21C02214FF469
:104BC000967001F0EDF910B13046BDE8FC8100208F
:104BD000FBE7000000004843000040460000C045DD
:104BE000000040450000C0440521B0FBF1F008B5CD
:104BF000010A8DF800108DF801006A4602214FF479
:104C0000EF7001F0CDF908BD0521B0FBF1F008B55A
:104C1000010A8DF800108DF801006A4602214FF458
:104C2000ED7001F0BDF908BD13B54FF6FF73012219
:104C300069460248FDF7B4FA00981CBDBC0100208B
:104C40002DE9FE430646264801AB042240680D21AB
:104C50000078FDF7B3FC10B10720BDE8FE839DF896
:104C600004101C2000EAD1029DF80710DFF87490B0
:104C7000C1F301131A438DF800209DF80520C1F3FC
:104C8000810300EAD2021A438DF801209DF8062024
:104C900001F0030100EAD20008430024124F8DF80E
:104CA0000200A0466D46285D10B146F824900AE047
:104CB00046F824800DE000BF56F824003946FBF783
:104CC000E9FA46F82400285D401E10F0FF00285540
:104CD000F2D1641CE4B2032CE5D30020BDE7000050
:104CE000580000207B14AE3E1D5A843F2DE9FE4F34
:104CF00005460120C14E8DF800004FF000088DF8E8
:104D0000018030680C461746817C70686B46022231
:104D10000078FDF7E0FC4FF0FF3A00287AD1C82078
:104D2000FCF798F88DF8008030686B460122C17B53
:104D300070680078FDF7CFFC0028EFD130686B4633
:104D40000122417970680078FDF7C5FC0028E5D1A3
:104D500030686B460122817C70680078FDF7BBFCEF
:104D60000028DBD130686B460122C17D7068007875
:104D7000FDF7B1FC0028D1D130686B4601220179E2
:104D800070680078FDF7A7FC0028C7D14FF00C0928
:104D90008DF8009030686B460122017970680078C8
:104DA000FDF799FC002835D10F20FCF753F8B06AC5
:104DB0006B460122407A8DF8000030688178706877
:104DC0000078FDF788FC002824D1B06A6B460122E8
:104DD000007A8DF800003068417870680078FDF73F
:104DE0007AFC002873D1B06A807A0FB140F0E000FD
:104DF0008DF8000030686B46012281797068007878
:104E0000FDF769FC002862D12FB1B06AC07A40F08A
:104E1000E00001E04AE018208DF8000030686B46A1
:104E20000122C17970680078FDF755FCF0BB17B11D
:104E3000C820FCF70FF840208DF8000030686B4662
:104E40000122017970680078FDF745FC70BB78207D
:104E50008DF8000030686B46012241797068007857
:104E6000FDF739FC10BB3220FBF7F4FF8DF8008012
:104E7000306847466B464179706801220078FDF73B
:104E80002AFC98B931687068B046897A00786B4618
:104E90000222FDF793FB48B9BDF80000AF6040BAAD
:104EA000B0FBF9F06F60C6B22F6000E00FE0A760C2
:104EB00067602760002739E0D8F80010D8F80400B0
:104EC0006B46C97A00780C22FDF778FB10B150468A
:104ED000BDE8FE8FBDF80000236840BA02B2BDF8FD
:104EE0000200BDF804101A44226040BA626800B2A1
:104EF0001044606049BAA06809B20844A060BDF8D7
:104F000006002B6840BA02B2BDF808001A4440BA45
:104F100001B2BDF80A002A606A6840BA11446960AB
:104F2000A96800B208447F1CFFB2A860B742C3D38F
:104F300028688322C117090441EA104100040023B4
:104F4000FBF7F0F832460023FBF7ECF828606868BE
:104F50008322C117090441EA104100040023FBF732
:104F6000E1F832460023FBF7DDF86860A868832289
:104F7000C117090441EA104100040023FBF7D2F8ED
:104F800032460023FBF7CEF8A86020684FF4006596
:104F9000C117090441EA104100042A460023FBF727
:104FA000C1F832460023FBF7BDF8206060682A464E
:104FB000C117090441EA104100040023FBF7B2F8CD
:104FC00032460023FBF7AEF86060A0682A46C1179E
:104FD000090441EA104100040023FBF7A3F832461C
:104FE0000023FBF79FF8A060002802DDA0F58030C9
:104FF00001E000F58030A060002069E75800002043
:105000002DE9F84F81462E488846002540686B46BA
:10501000032200780D21FDF7D1FA10B10720BDE879
:10502000F88F9DF80000002400F01F008DF80000AC
:105030009DF801006FF00F0B00F01F008DF80100CC
:105040009DF802006E4600F01F008DF802004FF040
:10505000010A00BF59F8241058F82400081A00D596
:105060004042FBF71BFB5946FBF784F90746305DCE
:10507000C0B1144802E01449FBF70CF9315D491E38
:1050800011F0FF013155F6D101463846FBF734F9EE
:105090004FF07E51FBF7F8F80C4920F000408842B1
:1050A00005DC07E00A483844B0F1D97F02D90AFA92
:1050B00004F00543641C032CCCDB2846AFE700005A
:1050C000580000200000C84154E3853F295C0F3E92
:1050D0000000E0BE10B5FDF771FA002010BD90F998
:1050E0000010002902DD4FF00000704702DA4FF097
:1050F0000400704790F90110002902DD4FF0010013
:10510000704702DA4FF00500704790F9020000285E
:1051100002DD4FF00200704702DA4FF006007047E0
:105120004FF0070070470000FBF7AAFFFDF758FF9C
:10513000FDF718FBFDF7F8FAFDF720FCFDF7B0FCD2
:10514000FDF73AFCFDF7E4FB0EA0FEF789FAFDF748
:1051500005FA00F05DF84FF0080380B10DA20621BA
:105160000020FDF7B1FD40F6B830FBF773FEFDF708
:105170006FFB1720FBF7D4FFFBF7C8FCFCE709A285
:10518000EDE70000426C616E63655F4361720D0A7A
:10519000000000004D5055363035305F4661696C77
:1051A000210000004D5055363035305F5375636334
:1051B0006573732100000000704700002DE9F04185
:1051C000124C20F00101002594F8240010B10020B9
:1051D000BDE8F081A07A4FF0FF3668B10840277C27
:1051E0002074884200D0354641B1012000F05AFFBA
:1051F00000F09AFB38B127743046E9E7207D00B112
:10520000012000F04FFF2846E2E700005800002090
:10521000F8B5FDF791F8002000906B46012275214A
:105220006820FFF757FF30A0FEF71AFA9DF800102C
:10523000682902D035A0FEF713FA394C02202070FD
:1052400000F090F908B10120F8BD782000F04CFE84
:1052500010B934A0FEF704FA7820FFF7AFFF10B9B9
:1052600037A0FEF7FDF9642000F0FEFD10B93BA069
:10527000FEF7F6F903202070FFF782F910B93FA07E
:10528000FEF7EEF947480546FFF729FF0646E81CFA
:10529000FFF725FF46EAC006A81DFFF720FF46EAF4
:1052A000801080B2FFF71CFB10B93FA0FEF7D8F9C1
:1052B00040F27310FFF73CF810B943A0FEF7D0F9A5
:1052C000042020706420FFF773FA10B944A0FEF7A1
:1052D000C7F900F095FE012000F0ECFC48A0FEF7B5
:1052E000BFF90020F8BD00006D70755F7365745FD5
:1052F00073656E736F7220636F6D706C657465207B
:105300002E2E2E2E2E2E0D0A000000006661696CD6
:105310006520202025642E2E2E2E2E2E0D0A000014
:105320000C0000206D7075C9E8D6C3B4ABB8D0C608
:10533000F7CDEAB3C9202E2E2E2E2E2E0D0A0000F8
:105340006D7075C5E4D6C34649464FCDEAB3C92052
:105350002E2E2E2E2E2E0D0A000000006D7075C907
:10536000E8B6A8B5C4B2C9D1F9C2CACDEAB3C9205A
:105370002E2E2E2E2E2E0D0A00000000444D50BC65
:10538000D3D4D8B6AFD7F7C7FDB6AFB3CCD0F2B948
:10539000CCBCFECDEAB3C9202E2E2E2E2E2E0D0A09
:1053A0000000000084000020444D50C9E8D6C3CD61
:1053B000D3C2DDD2C7B7BDCFF2CDEAB3C9202E2EFE
:1053C0002E2E2E2E0D0A0000444D50CAB9B9A6C487
:1053D000DCCDEAD5FB202E2E2E2E2E2E0D0A00001F
:1053E000444D50C9E8B6A84649464FCBD9C2CACDAC
:1053F000EAB3C9202E2E2E2E2E2E0D0A00000000FC
:105400006D7075C9E8D6C3444D50D7B4CCACCDEA65
:10541000B3C9202E2E2E2E2E2E0D0A000D494A7AAB
:1054200042B1012A08D0022A0FD0032A0FD04FF030
:10543000FF307047022200E004220270C97C11B1E3
:105440001106C90D0170002070470822F5E71022EF
:10545000F3E70000580000200F494A7A42B1012AC0
:1054600009D0022A11D0032A12D04FF0FF30704722
:105470004FF4804201E041F69C720280C97C11B178
:10548000C2F34E010180002070474FF48052F4E7D0
:105490004FF40062F1E70000580000200B49097A40
:1054A00039B1012907D002290AD003290BD00021E4
:1054B00003E0FA2101E04FF4FA7101800020704707
:1054C0004FF47A71F9E74FF4FA61F6E758000020DB
:1054D0000A49097A41B1012908D002290AD00329D1
:1054E0000AD04FF0FF307047054900E005490160E0
:1054F000002070470449FAE70449F8E75800002003
:1055000000000343000083423333034233338341BB
:105510000C49C97A072913D2DFE801F01204060A00
:105520000C0E1000BC2100E06221018000207047B9
:105530002A21FAE71421F8E70A21F6E70521F4E722
:105540000021F2E758000020054991F8242012B10B
:105550004FF0FF307047C98901800020704700007C
:10556000580000202DE9FC414C4C80208DF80000B3
:1055700020686B460122817C60680078FDF7ABF8FB
:105580004FF0FF37002832D16420FBF763FC002581
:105590008DF8005020686B460122817C606800789D
:1055A000FDF799F8002871D120686B460622817DAD
:1055B00060680078FDF702F8002867D19DF80500C3
:1055C0009DF80310C007400F01F0010140EA4101BE
:1055D0009DF801004FF0010600F00100014309D0E1
:1055E000012905D0022915D02DA0FEF739F84DE08C
:1055F000E67410E020686B460122C178606800788C
:10560000FCF7DCFF48BB9DF8000010F00F0021D034
:10561000042823D0E574FF20A07204F8080F4FF689
:10562000FF716070E070E1802072A0722671A67632
:105630001A48E57665732038257340F8365F456073
:10564000856025776577E5834FF4FA6000F06EFB9F
:1056500018B907E01C48FEF703F817E01BA0FDF798
:10566000FFFFC5E7022000F083FA78B92A2000F096
:10567000C5FB58B9322000F0F7FB38B90020FFF71E
:105680009DFD18B9002000F0A7FA10B13846BDE81A
:10569000FC81002000F028FC0020F8E758000020E2
:1056A000556E737570706F7274656420736F667475
:1056B000776172652070726F6475637420726576AD
:1056C0002025642E0A000000C076000848616C6640
:1056D0002073656E7369746976697479207061727C
:1056E0007420666F756E642E0A0000002DE9FF4F6E
:1056F000DFF89480064685B098F8250015460F46D9
:105700004FF0FF39B0BBAFB3002420E0301B1028AE
:1057100000DD102080B283463A19014692462046A9
:1057200000F03EFC30BB6A465946204600F0D2F8F5
:1057300000BB50465A466946FAF747FD20B16FF064
:10574000010009B0BDE8F08F04EB0B0084B2B44255
:10575000DCD3280A8DF810008DF81150D8F800001D
:10576000444604AB817ED8F8040002220078FCF79E
:10577000B2FF08B14846E4E7012084F82500089804
:10578000E0840020DDE70000580000202DE9F84308
:1057900005464FF0FF39282844D80727284C002613
:1057A0007DB1012000F0F8FA20208DF800004FF0C4
:1057B0000108012D17D0052D18D88DF8018005207E
:1057C0001FE0002000F0E8FA8DF800608DF801700D
:1057D00020686B460222817C60680078FCF77BFFC2
:1057E00000BB267529E08DF80160E8E7142D04D888
:1057F00002208DF801000A2003E003208DF801004B
:10580000142000F0FBFA9DF801006B4607EB8010B6
:105810008DF8010020680222817C60680078FCF726
:105820005AFF10B14846BDE8F8830820A0722673DD
:1058300084F814800020FFF7C1FC0020F3E700008B
:10584000580000202DE9F843214C0646174694F8ED
:10585000240089464FF0FF3890B3A07A80B32068C7
:105860006B460222817A60680078FCF7A7FE38BB9D
:10587000BDF8000045BAB54202D2002038701FE0E2
:1058800060684188B5EB510F11D9216800786B46EB
:10589000497C0122FCF792FE90B99DF80000C006F9
:1058A00005D500F041F86FF00100BDE8F8832068ED
:1058B000F2B24B46C17A60680078FCF77FFE08B10F
:1058C0004046F2E7B5FBF6F0401E38700020ECE7EA
:1058D00058000020F8B516000D464FF0FF371FD0D6
:1058E000104CA17AE1B1010A8DF80010C0B28DF818
:1058F0000100411960684289914211D821680078FD
:105900006B46097E0222FCF7E6FE48B92068EAB23F
:105910003346417D60680078FCF750FE002800D0D7
:105920003846F8BD58000020F8B5544C4FF0FF360B
:10593000A07A00287DD000258DF8005020686B46A5
:105940000122C17B60680078FCF7C5FE002870D199
:1059500020686B460122417960680078FCF7BBFE45
:10596000002866D120686B460122017960680078C2
:10597000FCF7B1FE00287FD194F82400E0B30C209E
:105980008DF8000020686B4601220179606800787C
:10599000FCF7A1FE00286FD13220FBF75BFAC02094
:1059A0008DF80000A07AC00702D0E0208DF800003A
:1059B00020686B460122017960680078FCF78BFE55
:1059C000002859D1607C18B102208DF8000001E058
:1059D0008DF8005020686B460122C17B606800781A
:1059E000FCF779FE28BB8DF8005020686B46012239
:1059F0004179606800783BE0FFE704208DF8000003
:105A000020686B460122017960680078FCF763FE2C
:105A100078B9A07C90B9A07AC0070FD05FF0600081
:105A20008DF8000020686B460122017960680078DB
:105A300000E021E0FCF74FFEF0B901E04020EFE785
:105A4000607C18B101208DF8000001E08DF8005055
:105A500020686B460122C17B60680078FCF73BFE42
:105A600050B92068054B01224179606810330078F5
:105A7000FCF731FE002800D03046F8BD5800002069
:105A80002DE9F047394C82468AB094F824000F463D
:105A900020B1002000F00EF9012600E0002607A842
:105AA000FFF7FCFC06A8FFF7B9FC09A8FFF730FDDB
:105AB00008A8FFF749FD94F80A9094F81080002593
:105AC000002239465046FFF711F910B16D1C022D26
:105AD000F6DB022D1AD00025012203A96846FFF744
